:020000040000FA
:10000000C8B40220A1040000A90400008D0400006F
:10001000AD040000AF040000B104000000000000C7
:1000200000000000000000000000000015020000B9
:10003000B50400000000000059020000B9040000EF
:10004000A90F0000BB040000D5160000BD1400007D
:10005000CD140000BB040000D10D000031110000E0
:10006000BB04000095160000A9160000BB040000A8
:10007000BB040000BB040000BB040000BB04000084
:1000800099040000B9100000BB040000BB0400008C
:10009000BB040000BB040000ED140000BB04000022
:1000A000BB040000BB040000BB040000BB04000054
:1000B00001100000BB040000000000000000000070
:1000C000BB040000BB040000BB040000BB04000034
:1000D00021110000BB040000BB040000BB040000B1
:1000E000BB040000BB040000BB04000000000000D3
:1000F00000000000BB04000000000000DD14000050
:1001000000000000000000000000000000000000EF
:1001100000000000000000000000000000000000DF
:1001200000000000000000000000000000000000CF
:1001300000000000000000000000000000000000BF
:1001400000000000000000000000000000000000AF
:10015000000000000000000000000000000000009F
:10016000000000000000000000000000000000008F
:10017000000000000000000000000000000000007F
:10018000000000000000000000000000000000006F
:10019000000000000000000000000000000000005F
:1001A000000000000000000000000000000000004F
:1001B000000000000000000000000000000000003F
:1001C000000000000000000000000000000000002F
:1001D000000000000000000000000000000000001F
:1001E000000000000000000000000000000000000F
:1001F00000000000000000000000000000000000FF
:10020000DFF80CD000F012FD00480047DF8100004D
:10021000C8B40220264B19680868B0E8F04F80F394
:100220000988BFF36F8F4FF0000080F3118870478B
:10023000000000000748006880F3088862B661B6D5
:10024000BFF34F8FBFF36F8F4FF4F07080F31188BF
:1002500000DF000000000000EFF30980BFF36F8FA4
:10026000134B1A681EF0100F08BF20ED108A20E90A
:10027000F04F106008B44FF0400080F31188BFF3D6
:100280004F8FBFF36F8F0EF0C1FE4FF0000080F371
:10029000118808BC19680868B0E8F04F1EF0100F0C
:1002A00008BFB0EC108A80F30988BFF36F8F7047E6
:1002B000C457002000B583B002900091019244F22F
:1002C000010071466A4602F06DFC03B000BD0000FB
:1002D00030B450E8012F93B2C48923448489A342E7
:1002E00028BF1B1B0489A34202BFBFF32F8F00202E
:1002F00007E0C3EA020340E80134002CE9D14FF0E3
:1003000001000A6030BC704750E8012FC2EA024287
:1003100040E801210029F7D1704730B450E8022F9E
:100320001FFAA2F3C488A34202BFBFF32F8F00209D
:100330000DE0C48923448489A34228BF1B1BC2EA61
:10034000034340E80234002CE8D14FF001000A607A
:1003500030BC704750E8022FC2EA224240E8022136
:100360000029F7D17047034653E8022FD988B2EB32
:10037000324F4FF0000017BF92B241EA014142EA0A
:10038000014104E05A68B2EB324F08BF012043E854
:100390000212002AE8D1704730B4044654E8000F36
:1003A0000D4644E80053002BF8D1156030BC70476F
:1003B00030B4044654E8000F40EA010544E8005315
:1003C000002BF7D1156030BC704730B4044654E8B8
:1003D000000F00EA010544E80053002BF7D1156037
:1003E00030BC704730B4044654E8000F80EA010581
:1003F00044E80053002BF7D1156030BC704730B48F
:10040000044654E8000F00EB010544E80053002BBC
:10041000F7D1156030BC704730B4044654E8000F83
:10042000A0EB010544E80053002BF7D1156030BC68
:10043000704770B404464FF0000054E8006F0D6838
:10044000AE4207BF44E80023012044E800630E6089
:10045000002B1CBF0020F0E770BC704730B404468E
:1004600054E8000F88422CBF451A054644E8005363
:10047000002BF5D1156030BC70470000EFF3088009
:100480007047EFF3098070476846704770466946C9
:1004900004F0FCF9FFF7FEFF7046694604F044FBE8
:1004A0000648804706480047FEE7FEE7FEE7FEE70E
:1004B000FEE7FEE7FEE7FEE7FEE7FEE721150000A8
:1004C00001020000202A04DB203A00FA02F1002099
:1004D00070479140C2F1200320FA03F31943904082
:1004E00070470000004870472CB60C0010B5431A46
:1004F000934209D28318881803E010F8011D03F80D
:10050000011D521EF9D210BD40EA01039B0703D022
:1005100009E008C9121F08C0042AFAD203E011F842
:10052000013B00F8013B521EF9D210BDD2B201E0EE
:1005300000F8012B491EFBD270470022F6E710B5E8
:1005400013460A4604461946FFF7F0FF204610BD41
:10055000421E12F8013F002BFBD111F8013B02F8BB
:10056000013B002BF9D17047421C10F8011B0029F8
:10057000FBD1801A704710B5002200E0521C835C4A
:100580008C5CA34201D1002BF8D1D8B2E1B2401A61
:1005900010BD30B504460020034600E05B1C9342CA
:1005A00003D2E05CCD5C401BF8D030BD034611F8AF
:1005B000012B00F8012B002AF9D1184670470000E2
:1005C00070B50F4D00B92868002412E00A4602E019
:1005D0009E4203D0521C1378002BF9D1DAB2224389
:1005E00005D02BB124B1002100F8011B04E0044622
:1005F000401C0678002EE9D12860204670BD00001E
:10060000287000202DE9F04791460F4680460446A9
:10061000002614F8015B2DB1FFF764FF0068405D10
:10062000C007F6D12B2D02D02D2D18D0641E4A46BE
:100630003946204600F035FA27B13968A14201D188
:10064000C7F8008071054FF002040BD54042002826
:1006500003DD01F0D9FA0460A007BDE8F08746F495
:100660008066E4E70028F8DA01F0CEFA04606FF063
:100670000040F2E770B5064601F0C6FA0468054688
:100680000A2200213046FFF7BDFF2C6070BD2DE926
:10069000FE4F804681EA0300C00F0C46009021F017
:1006A000004123F00045B8EB0200A94105D24046C5
:1006B000214690461C460B46024623F0004010435C
:1006C00047D0270DC7F30A00C3F30A510290401A1E
:1006D000019040286BDAC3F3130040F4801B0098AC
:1006E000924620B10023D2EB030A63EB0B0B019877
:1006F0005946C0F140025046FFF7E4FE06460D465B
:1007000050465946019A00F0BAF910EB08006141D1
:10071000002487EA115284EAE7731A4340D0009A12
:1007200062B3019A012A4FEA075215DC001B61EB04
:1007300002014FF0004202EA0752CDE90042001CDC
:1007400041F5801132462B4600F009FA03B0BDE8AE
:10075000F08F40462146F9E7001B61EB0201001CC7
:1007600041F5801300185B412018A2F5001747EBF4
:10077000030140EAD570B6196D4111E06D084FEAEA
:10078000360645EAC0754FEA0752001B61EB0201CD
:10079000001C41F5801149084FEA30000019514111
:1007A00032462B4603B0BDE8F04F00F0C9B90098BF
:1007B000012240000023D0EB020263EBE0730098BB
:1007C00021464FEAE074B8EB000061EB0401E9E771
:1007D00083F000435BE781F0004158E72DE9FE4FCD
:1007E00081EA030404F0004421F0004100944FF03A
:1007F000000B23F0004350EA01045ED052EA0304E8
:100800005BD0C3F30A54C1F30A552C44A4F2F33469
:100810000194A0FB0254C1F3130141F48011C3F30E
:10082000130343F4801301FB024400FB034E840ACC
:10083000970A44EA815447EA8357A4FB0768029564
:100840008D0A05FB07854FEA932C04FB0C54270502
:10085000029D4FEA065847EA1637B5EB08056EEBDE
:10086000070C870E920E47EA811742EA8312A7FB14
:100870000201B6EB0B0164EB00042B0D43EA0C33D1
:100880005E1844EB1C50DA465146E7FB0201C5F303
:1008900013044FEA0B3343EA14534FEA0432019C2A
:1008A00043EA0603A4F10C040294009CCDE900B4D1
:1008B00000F055F903B0BDE8F08F00200146F9E7DC
:1008C0002DE9F04D81EA030404F0004B21F00045CE
:1008D00014464FF0000A23F0004150EA050220D0F0
:1008E00054EA01021DD0C5F30A570246C5F31303AB
:1008F000C1F31300C1F30A5640F4801543F480138A
:10090000A7EB0608101BD64608F2FD3873EB05006E
:1009100002D308F1010801E092185B41B8F1000F21
:1009200003DA00200146BDE8F08D00204FF480116D
:10093000064684460EE0171B73EB050705D3121B12
:1009400063EB050306434CEA010C49084FEA30000B
:1009500092185B4150EA0107EDD152EA030012D030
:1009600082EA040083EA0501084305D0101BAB416D
:1009700006D20122002306E000224FF0004302E0ED
:100980006FF0010253101AEB06004CEB085110EB0C
:100990000A0041EB0B01BDE8F04D00F0D1B80000BA
:1009A00030B5041E71F1000404DB4FF000444042F6
:1009B00064EB0101141E73F1000405DB1C464FF0CB
:1009C0000043524263EB0403994208BF904230BD9A
:1009D00030B50B46014600202022012409E021FA0F
:1009E00002F59D4205D303FA02F5491B04FA02F50C
:1009F0002844151EA2F10102F1DC30BD2DE9F05FA3
:100A00000546002092469B4688460646814640247D
:100A10001BE0284641464746224600F020F8534650
:100A20005A46C01A914110D3114618462246FFF784
:100A300049FD2D1A67EB01084F462246012000218F
:100A4000FFF740FD17EB00094E41201EA4F1010401
:100A5000DFDC484631462A464346BDE8F09F202A5F
:100A600004DB203A21FA02F00021704721FA02F358
:100A7000D040C2F120029140084319467047202A15
:100A800006DBCB17203A41FA02F043EAE07306E0B6
:100A900041FA02F3D040C2F12002914008431946C6
:100AA00070472DE9F05F82460078002715468B4697
:100AB0000AF10104B946302801D09DB113E014F8C1
:100AC000010B0127782803D0582801D045B10AE04E
:100AD0000DB1102D07D10027102514F8010B02E0ED
:100AE000082500E00A250026B0460EE005FB0800B8
:100AF00005FB06F1012701EB10461FFA80F8B6F559
:100B0000803F00D3B94614F8010B294600F0A0F845
:100B10000028EBDABBF1000F05D00FB1641E00E036
:100B20005446CBF80040B9F1000F06D001F06CF844
:100B300002210160C81EBDE8F09F48EA0640FAE7BE
:100B400010B5141E73F1000408DA401C41F10001D5
:100B500092185B411A4301D120F0010010BD2DE92C
:100B6000F04D92469B4611B1B1FA81F202E0B0FA23
:100B700080F220329046FFF7A5FC04460F4640EA7B
:100B80000A0041EA0B0153465A46084313D0114666
:100B900053EA010019D0C8F140025046FFF75FFF49
:100BA00005460E46504659464246FFF78BFC084321
:100BB00005D0012004E020463946BDE8F08D002034
:100BC000054346EAE0762C4337430A986305E40A76
:100BD000A0EB08000022FD0A44EA47540A3002D57F
:100BE00000200146E9E7010510196941DDE90845E2
:100BF00000196941BDE8F04DA2E7C1F30A52C1F303
:100C0000130140F2FF3341F480119A4202DA0020CE
:100C10000146704740F233439A42A2F2334202DC6B
:100C20005242FFF71CBFFFF74DBC0000064C074DBA
:100C300006E0E06840F0010394E8070098471034AC
:100C4000AC42F6D3FFF7E0FAD4BE0C00F4BE0C00C1
:100C50003A2800D2303820F02002412A01D3A2F1F4
:100C60003700884201D34FF0FF30704770B58D18C0
:100C700010F8014B14F0030201D110F8012B2311DD
:100C800006D110F8013B03E010F8016B01F8016B8D
:100C9000521EF9D1ABB110F8012B04F00C048A1AE2
:100CA0000C2C03D0A2EB84129B1C08E010F8014B23
:100CB000A2EB0422F8E712F8014B01F8014B5B1E8E
:100CC000F9D5A942D4D3002070BD000003B50D4B67
:100CD000024685B01888A0F57F41FF390FD000216A
:100CE000009101919B88ADF8041006A9CDE902128C
:100CF000ADF8003001238DF802306946AEDF07B051
:100D000000BD00005C7E02200022027010460A60D6
:100D1000704700B589B00DF04FF9014668460DF0F7
:100D200063F9BDF8000002909DF8020003909DF861
:100D3000030004909DF8040005909DF805000690BE
:100D40009DF80600079002A80EF086FB09B000BDD2
:100D50000FB44FF4807110B504AB0648039A00F04D
:100D600041FF02460349002007F01CFA10BC5DF861
:100D700014FB00006A7E022010B5C0B201F00AFE2A
:100D8000002010BD13460A46194601F057BE93B223
:100D90000A46194601F0B4BE10B507F00FFE18B1AF
:100DA00004A2B721FFF786FA0848016841F0040160
:100DB000016010BD2E2E5C2E2E5C6770735F6D611E
:100DC000696E5C696E69742E6300000010ED00E0CE
:100DD0002DE9F04F00268DB0DFF8A081B1460496D2
:100DE0004FF48075012437460596284608F0D8F957
:100DF00038B1D8F80403204203D0284608F0C6F9D9
:100E000026432D1D64007F1CADB2082FEDD34FF497
:100E1000BE74204608F0C4F948B1204608F0B6F97F
:100E200046F0004604AA0221002008F099F9544C2B
:100E300016F0FF0F15D00127002537420DD008EB23
:100E40008501D1F81005D1F81015C0F3052054F82C
:100E50002520C1F3014102B190477F006D1C082D90
:100E6000EBD3002E7EDA0020CDF82890411E0DF144
:100E7000100B07AACDF82C9042F82010401C914688
:100E80000228F9D300252E46A11911F8607F91F9A7
:100E9000000027F0C008401C40D007A9404607F0DA
:100EA000E9FB40B34FEA971A404603F01DFC54F8A3
:100EB00020701FB1BAF1030F03D006E0BAF1030F9F
:100EC0002CD10AA9404607F0DDFB02A8CDF8088026
:100ED00008F044F8029900EB8100D0F8000704A95B
:100EE000C0F301400290404607F0C4FB002802987E
:100EF00002D0022802D011E003280FD1BAF1030F6B
:100F000008D10298022833D00221404607F0DBFFC7
:100F10006D1CEDB217B151464046B847761C042E01
:100F2000B2D3002D21D001AA0221002008F018F927
:100F300000205A460DF1040152F8206051F820308B
:100F4000B34217D000200AAE4FEA090351F82070CF
:100F500042F8207056F8207043F82070401C022898
:100F6000F4D300E001E0002D8CD10DB0BDE8F08F8E
:100F70000321CAE7401C0228DED3F6E700600040E8
:100F800058750020BFF34F8F05480168054A01F4EA
:100F9000E06111430160BFF34F8F00BFFDE7000028
:100FA0000CED00E00400FA0570B54FF48076304691
:100FB00007F0D9FC114CB50560B1304607F0DAFCFA
:100FC0000120C5F80803607920B90120607121680B
:100FD000002088474FF48276304607F0C4FC002892
:100FE0000AD0304607F0C6FC0220C5F80803216885
:100FF000BDE870400120084770BD000090580020F7
:101000000149024806F085BCB46F002000C00140D1
:101010003EB50D4CE078002814D10120E0700B485B
:1010200007C88DE807000022694604F1180008F09F
:1010300043FC18B106A2AB21FFF73CF9A07840F0C1
:101040000100A0703EBD00001C590020C8FF000038
:101050002E2E5C2E2E5C2E2E5C2E2E5C2E2E5C6494
:1010600065766963655C6C636D5C4C434D5F53549E
:10107000373330315C5354373330312E6300000046
:101080004FF4FA6011FB00F06421B0FBF1F0054968
:10109000C0F5FA600223088002480122024910309C
:1010A00008F08EBC24590020B8FF0000012101483F
:1010B00008F0BEBC345900202DE9F041164E4FF423
:1010C000A071304608F0ACF80025EFF31184402001
:1010D00080F31188D6F804758100304608F0A0F836
:1010E0000EF02EFC381A20F07F46012E07D90EF0A4
:1010F00019FC022803D000260EF02EFC0543761EB4
:10110000FAD225B105494FF08050086040BFE0B2E7
:1011100080F31188BDE8F0810010014004ED00E08B
:1011200004220021014806F07FBB0000004002407D
:101130002DE9FE434FF48278404608F085F84C4F85
:1011400000254C4C012600B3404608F085F894F881
:101150002E0010B194F82F10D1B18DF800506168B5
:1011600001912189ADF80810E26832B1218B6183C9
:1011700062602181E56010B102E0257400E03E600C
:1011800021686846884784F82F5094F82E0060B391
:101190004FF48077384608F057F830B3384608F0F7
:1011A0005BF8628B94F82D108A420AD9A2EB0100F9
:1011B00080B260832289A2EB0000626802EB4000EB
:1011C00005E007D1E06828B184F82F60658308F056
:1011D00033F804E08A4202D184F82F6065834046E8
:1011E00008F03AF82248001D06604FF48877384628
:1011F00008F02AF848B1384608F02EF82574022085
:101200008DF800002168684688474FF48A77384691
:1012100008F01AF828B1384608F01EF82574BDE821
:10122000FE834FF000484FF48C7967691DE000BFE2
:10123000B7FA87F028FA00F109EB80058F432846BA
:1012400008F002F888B1284608F006F8A5F58C7574
:10125000E8088DF8040045F38000401C8DF800601C
:101260008DF80500216868468847002FE0D1D6E751
:10127000007000402C760020F8B50D4B0646144651
:1012800018780D4608B900F0F9FA00208DF8000032
:10129000684601F0FDFD22462946304600F00AF876
:1012A00004469DF8000001F017FE2046F8BD00003E
:1012B0004878002070B50E46144900EB400001EB61
:1012C000C0051446E86A183520B101280FD002285D
:1012D00005D113E0284600F005FBA04201D200240E
:1012E00011E022463146284600F022FC0BE0284659
:1012F00000F0F8FAA042F4D20446F2E7314628465C
:1013000000F0E9FB0446204670BD0000487800204C
:101310000FB408B504A900916A46039900F003F8D8
:1013200001B05DF814FB2DE9F04198B0064607A81E
:10133000029040200025CDE90305CDE905569046F1
:101340000C4614F8011B002973D0252908D002A8E7
:1013500000F0A2FB05980028F3DA18B0BDE8F08190
:10136000002001212278232A1ED02B2A19D02D2AD1
:1013700002D0302A08D102E040F0010001E040F044
:101380000200641C0029EDD100222178A1F1300374
:101390000A2B0CD202EB820201EB4202303A641CAF
:1013A000F3E740F00400ECE740F00800E9E7002331
:1013B000CFB22E2F0BD114F8011FA1F130070A2F45
:1013C00005D203EB830301EB4303303BF3E76C29C6
:1013D0000DD068290BD0702954D00BDC252916D0EC
:1013E000582931D063290CD0642913D114E014F8A2
:1013F000011FECE7732934D075291BD0782909D156
:1014000022E0D8F80000011DC8F80010017802A8F9
:1014100000F042FB641C9DE7D8F800100F1DC8F8CF
:1014200000700968CDE900200A2202A800F066FADF
:10143000F0E733E0D8F800100F1DC8F80070096815
:10144000CDE900200A2208E0D8F800100F1DC8F8E6
:1014500000700968CDE90020102202A800F0B2FA5D
:10146000D8E7D8F80000011DC8F80010076817F881
:10147000011B0029CED002A800F00EFB0598002821
:10148000F5DAC7E7D8F80000011DC8F800100168B8
:101490000820CDE9000503461022DEE70598002864
:1014A0007FF75BAF049820B1024607A93046FFF7EB
:1014B000E3FEDDE90410084405904EE701490248C7
:1014C00006F002BA589D02200030004002494FF059
:1014D00040200CF0FBBF00005C7600200149024870
:1014E00006F0F2B97C9D022000F0024008B5002011
:1014F00000900948694600680DF0ACFC009800288F
:1015000008D006494FF08050086040BFBFF34F8FAE
:10151000BFF36F8F08BD00000459002004ED00E008
:101520004FF0805000228300D0F83011C3F80C2116
:10153000C3F810214B4B1A604B4A12684B4B1A6090
:10154000494A121D12681B1D1A60474A0832126868
:101550001B1D1A60444A0C3212681B1D1A60424A55
:10156000103212681B1D1A603F4A143212681B1D8C
:101570001A603D4A183212683C4B20331A603A4ACE
:101580001C3212681B1D1A60374A203212681B1D5C
:101590001A60354A243212681B1D1A60324A2832FA
:1015A00012681B1D1A60304A2C3212681B1D1A600B
:1015B0002D4A303212682D4B40331A602A4A343299
:1015C00012681B1D1A60284A383212681B1D1A60E7
:1015D000254A3C3212681B1D1A60234A40321268A9
:1015E0001B1D1A60082902D1D0F8342112B1082934
:1015F00004D006E01F4A1E49116005E0D0F83421EE
:1016000012B1082904D006E01B4AFB21116005E055
:10161000D0F8342112B1082908D00EE090F85822F1
:101620001648016862F30301016002E0D0F834213A
:101630001AB913494FF40070086012480168C907CD
:1016400002D06FF0010101600F48016841F47001A0
:101650000160BFF34F8FBFF36F8F0D490B480860D8
:1016600070470000380500400404001020C5004009
:10167000488103008C56004018F50040E40E0040FD
:10168000409602400004004088ED00E00090D00346
:101690001070002004220249024806F0A1B80000A0
:1016A000147600200090004004220249024806F00F
:1016B00097B800002076002000A00040044802688F
:1016C0004168521C41F10001026041607047000016
:1016D0007859002001480068004700009858002011
:1016E00010B501F04BFB002805D0BDE81040024AC0
:1016F000C321FEF7DFBD10BDB40D000010B502F030
:101700009BFD03F07FFD03F095FC00F0B5F8BDE80C
:10171000104005F09DBF000001490120087070478E
:10172000FD5E00200149002008707047FD5E00202A
:101730002DE9F04FADF20C4D0025374C4FF440062B
:1017400006F072FB4FF4406A40F6BB49DFF8CCB0BC
:101750004B46524632A10020009406F007FD5A463F
:10176000494650460DF034FA002841D031A10020FE
:1017700006F0FCFC35A1002006F0F8FC22E000BFDA
:1017800000F07AF8BC4212D308EB05013A4602A8F1
:10179000FEF7ACFE3A46314602A803F0BBFCB4F5B6
:1017A000806405F5806506F58066E9D10AE008EBFE
:1017B0000501224602A8FEF799FE2246314602A8FC
:1017C00003F0A8FC05F0C4FA05F00CFB5A464946A4
:1017D00050460DF0FDF990B12548782100901A236C
:1017E0001022084605F0AEFA0DF20C4DBDE8F08F60
:1017F00000F042F84FF48067DFF87880C4E70021FA
:101800000C20EF23CDE900011A46084605F0ACFA9A
:1018100005F0F2FAE8E70000B0B00B00B59BF1B9B3
:10182000733A25642C20653A25642C20733A25648C
:101830000D0A00006770735F62616E6B20B4E6D4BE
:10184000DA2D2D2D2D2D0D0A000000002D2D2D2D12
:101850002D20677073207061727473756363657394
:101860007366756C202D2D2D2D2D200D0A00000086
:10187000A86A00205602010008F0FCBE10B5124C08
:1018800002202061606111A0A06104F17800E06194
:101890004FF4007020620020A06260620BA1A1647E
:1018A000E06204F51E71E1641021A065C4E9141022
:1018B000E06509A1E01DFEF779FE08A12046FEF7CC
:1018C00075FE2020A07110BD487800205465726D0F
:1018D000696E616C00000000525454005345474744
:1018E000455200000269C1688A4203D88068401AE4
:1018F000104400E0501A401E704700002DE9FC5FC4
:101900000E008146DDE90C47C6F10000984693467B
:10191000824600D40846012503E000BF90FBFBF09F
:101920006D1C5845FADAA84500D9454624B1002E69
:1019300001DB780700D5641EB80702D5B8F1000FA7
:101940000FD0F8070DD164B1A5420AD22021484634
:10195000641E00F0A1F8D9F80C000028F3DABDE805
:10196000FC9FD9F80C000028F9DB002E02DA56465D
:101970002D2102E0780707D52B21484600F08CF88E
:10198000D9F80C000028EADB07F0030002280FD189
:10199000B8F1000F0CD15CB1A54209D23021484604
:1019A000641E00F079F8D9F80C000028F3DAD6E7C5
:1019B000CDE9004743465A463146484600F002F812
:1019C000CDE700002DE9F84F8246DDE90A4B0126FC
:1019D000984691460D460846374602E0B0FBF9F0BE
:1019E0007F1C4845FAD2B84500D947465FEACB701C
:1019F00017D1B4B15FEA8B7002D5B8F1000F02D0F5
:101A0000202000900BE03020FBE75046641E009938
:101A100000F042F8DAF80C00002838DB0CB1A742DD
:101A2000F3D3DAF80C00002831DB00BFB8F1010F66
:101A300002D9A8F1010803E0B5FBF6F0484502D34E
:101A400006FB09F6F2E7DFF84C8000BFB5FBF6F0C5
:101A500000FB165518F80010504600F01DF8DAF893
:101A60000C00002803DBB6FBF9F6002EEED15FEA8E
:101A7000CB700CD0002C0AD0A74208D220215046AF
:101A8000641E00F009F8DAF80C000028F2DABDE86C
:101A9000F88F000058FE000010B50446D4E901306C
:101AA000421C934205D323681954A260E068401C8D
:101AB000E060D4E90102824209D121682069FFF780
:101AC000DBFBA168884203D04FF0FF30E06010BD1F
:101AD0000020A06010BD2DE9F047C4681746894674
:101AE00006464FF000083069A04201D9051B02E00C
:101AF000B168201A0D1AB0686D1E001BA84200D8EC
:101B00000546BD4200D33D4670682A4620444946FA
:101B1000FEF7ECFCB0687F1B2C44A844A944A0420B
:101B200000D10024F460002FDDD14046BDE8F087ED
:101B30002DE9F04104468846D4E90207C51BE16857
:101B4000606816460844B54206D94146FEF7CEFC09
:101B5000B819E060BDE8F0812A464146FEF7C6FCB0
:101B6000761B08EB050132466068FEF7BFFCE660B5
:101B7000F0E700000FB4054B10B503A9044A029822
:101B800000F01AF910BC5DF814FB00002965000094
:101B9000247000200FB41CB50A46521ECDE9000285
:101BA00007A9054B6A46069800F006F9009A00213D
:101BB00011701CBC5DF814FBE72400000FB4084B47
:101BC00010B504A902AA039800F0F6F8044602A989
:101BD000002000F093FC204610BC5DF814FB0000D0
:101BE000FD2400007CB5491E1C461546CDE90001C8
:101BF000044B6A462146284600F0DEF8009A002190
:101C000011707CBDE7240000004870472C70002054
:101C100002E008C8121F08C1002AFAD170477047B5
:101C2000002001E001C1121F002AFBD17047000013
:101C30000121202803DA81400548014003E04028C3
:101C400002DA2038814009B1012070470020704736
:101C5000FC06FFBD2DE9FF5FDDE90220010DDDF887
:101C600038B0024318D044F61050A1F2FF3141437E
:101C70000D140F98012820D0A5EB0B00401C5FEA43
:101C8000000A4FF00004474EDFF81C91A046504672
:101C900016D5CAF1000728E00F98012443A20128B5
:101CA00008D0002100980F9BC0E90021C0E9024341
:101CB000BDE8FF9F6FEA0B01F4E7CBF10000DEE720
:101CC000074612E0F80707D0224633464046494609
:101CD000FEF784FD80468946224633461046194663
:101CE000FEF77CFD04460E467F10002FEAD1DDE9A9
:101CF0000201BAF1000F42464B4602DAFEF76EFDD2
:101D000001E0FEF7DDFD04460E460022284BFEF7FB
:101D100047FE03D84FF0FF30014607E00022254B75
:101D200020463146FEF7B3FCFEF767FF102409E0BA
:101D3000002C0ADB0A220023FEF760FE019B3032F2
:101D40001A55641E50EA0102F2D1641C019AC4F1D2
:101D5000110314440F9A012A03D0012208430DD124
:101D60000AE0084304D000204FF0110B0F9080E7E9
:101D7000A3EB0B056D1E0DE05B4504DD4FF000028B
:101D800005F1010504E003DA4FF00002A5F10105B9
:101D9000002AECD000980F99C0E90231C0E9004553
:101DA00086E70000000024400000F03F3000000003
:101DB0000000F0430000E03F2DE9FF4F95B09B4647
:101DC0008946064600250FE2252877D100242746BC
:101DD000F84A0121059400E0044316F8013F203B36
:101DE00001FA03F01042F7D130782A2811D06FF0B1
:101DF0002F033078A0F13002092A16D8059A44F052
:101E0000020402EB820203EB42021044761C0590AE
:101E1000EFE759F8042B0592002A03DA504244F404
:101E20000054059044F00204761C30782E2816D118
:101E300016F8010F44F004042A280DD06FF02F0289
:101E40003078A0F13003092B09D807EB870302EBA8
:101E50004303C718761CF3E759F8047B761C3078E7
:101E60006C280FD006DC4C2817D068280DD06A28C3
:101E700014D104E0742810D07A280FD10DE044F476
:101E800000140AE044F4801401E044F44014727831
:101E9000824202D104F58014761C761C30786628C4
:101EA0000BD013DC582877D009DC002875D04528E2
:101EB000F6D04628F4D047281AD19DE118E06328CF
:101EC00035D0642879D0652812D195E1702873D077
:101ED00008DC6728F1D069286FD06E280DD06F28F4
:101EE00006D1B5E073282CD0752875D0782874D029
:101EF0005A46179990476D1C75E1C4F302500228A9
:101F000009D003280DD0D9F8001004280DD00D6099
:101F100009F1040967E1D9F80010EA17C1E9005294
:101F2000F6E7D9F800100D80F2E70D70F0E719F828
:101F3000041B8DF8001000208DF80100EA460120F6
:101F400003E059F804AB4FF0FF3061074FF0000198
:101F500002D40DE008F101018846B9420FDA80454C
:101F6000F8DB1AF808100029F4D108E008F10101A3
:101F700088468142FADB1AF808100029F6D1059844
:101F80005B46A0EB080721463846179A00F094FA02
:101F9000284400EB080507E04DE029E10DE01AF8C0
:101FA000010B5A4617999047B8F10108F7D25B46E2
:101FB00021463846179A13E142E00A220092C4F300
:101FC00002524FF0000A022A08D059F804CB032A23
:101FD0004FEAEC710AD00DE029E02AE009F107018F
:101FE00021F00702F2E802C1914609E00FFA8CFCE9
:101FF0004FEAEC71042A03D14FFA8CFC4FEAEC71E2
:10200000002907DA0A460021DCF1000C61EB02012D
:102010002D2202E0220504D52B228DF80420012276
:1020200003E0E20701D02022F7E7904659E00A21B9
:1020300002E010220DE010214FF0000A00910BE0A9
:1020400010224FF0000A44F004040827009203E035
:1020500008224FF0000A0092C4F30252022A05D06F
:1020600059F804CB0021032A08D009E009F107013F
:1020700021F00702F2E802C1914605E01FFA8CFC4C
:10208000042A01D10CF0FF0C4FF00008220728D5DC
:10209000702806D0009B83F0100353EA0A0305D092
:1020A0000EE040228DF80420012208E05CEA0102E3
:1020B00006D030228DF804208DF8050002229046CB
:1020C000009B83F0080353EA0A030AD15CEA010289
:1020D00001D1620705D530228DF804204FF00108A8
:1020E0007F1E582804D034A003900EA802900DE063
:1020F00036A0F9E753466046009AFEF77FFC844617
:102100000398825C0298401E029002705CEA010013
:10211000F0D1029806A9081A00F1200A600702D53A
:1021200024F4803400E00127574502DDA7EB0A00C4
:1021300000E0002000EB0A01009005984144401A9D
:102140000590E00306D45B462146179A059800F0F7
:10215000B3F90544002706E001A85A46C05D179967
:1021600090476D1C7F1C4745F6DBE0030CD55B46B2
:102170002146179A059800F09FF9054404E03020A5
:102180005A46179990476D1C0099481E00900029E7
:10219000F5DC08E0029802995A460078491C029141
:1021A000179990476D1CBAF10001AAF1010AF1DC00
:1021B00065E100000928010030313233343536370B
:1021C0003839616263646566000000003031323383
:1021D0003435363738394142434445460000000023
:1021E00000F058F90544761C307800287FF4ECADF7
:1021F00019B02846BDE8F08F620700D4062709F120
:10220000070222F0070CFCE80223E14603F0004835
:102210005FEA080C02D00FF2702C0DE05FEA045C5C
:1022200002D50FF2682C07E05FEAC47C02D00FF2FF
:10223000602C01E0AFF2700C4FF0FF3823F0004348
:10224000CDF850C065280CD006DC452809D04628BA
:102250001DD047283DD13DE0662818D067287ED1A3
:1022600038E00021112F01DB112000E0781CCDE9BE
:10227000000106A90EA8FFF7EDFCDDE90F010E9A9B
:1022800003910021009207F1010A04914DE04FF003
:1022900000400097CDE9011006A90EA8FFF7DAFC6F
:1022A000DDE90F0203920E9B11990022DDF80CA0CC
:1022B0000093049211B9791C00EB010AB7EB0A00F4
:1022C00004D4C0F1FF3007F1010A0490AAEB070023
:1022D000019044E0012F00DA01270021112F01DDD8
:1022E000112000E03846CDE9000106A90EA8FFF74D
:1022F000B1FCDDE90F010E9A0391002104910092D7
:10230000BA4621070CD40399514500DA8A46BAF13E
:10231000010F05DD009AAAF10101515C302908D0B6
:10232000B84202DA10F1040F06DA0121CDE90110FA
:1023300015E0AAF10101E9E7002805DC0499014450
:102340000491AAEB000102E0411C514500DD8A46E0
:102350000499401A401C01904FF000400290200761
:1023600004D40198504501DBCDF8048000208DF89D
:102370004F0002980DF14F07B0F1004F25D02B20F0
:102380000E9002984FF0020800280CDA40420290AA
:102390002D200E9007E00A210298FEF719FB30313C
:1023A000029007F8011DB8F10001A8F10108F2DC64
:1023B00002980028EFD1791E0E980870307800F04E
:1023C000200040F0450007F8020D12A8C01B00F1E4
:1023D00007081498007800B1012000EB0A01019869
:1023E00001EBE07105984144401A401E0590E0035E
:1023F00006D45B462146179A059800F05DF805441F
:102400001498007818B15A46179990476D1CE0034C
:1024100024D55B462146179A059800F04DF80544EF
:102420001CE00498002807DBDDE90301884203DD96
:102430000098405C179901E0179930205A46904760
:10244000049805F10105401C04900198401E01907C
:1024500004D12E205A46179990476D1CBAF10001FD
:10246000AAF1010ADDDC05E017F8010B5A461799BD
:1024700090476D1CB8F10001A8F10108F4DC5B463F
:102480002146179A0598ABE62D0000002B000000AE
:10249000200000002DE9F041044600251E461746A5
:1024A000880404D405E039462020B0476D1C641E22
:1024B000F9D52846BDE8F0812DE9F0410446002514
:1024C0001E469046C80301D5302700E02027880427
:1024D00004D505E041463846B0476D1C641EF9D569
:1024E0002846BDE8F0814A68002A06D00A68531CD5
:1024F0000B6010704868401E486070470A68531CA3
:102500000B601070704710B560B159B102780B784C
:102510005208B2EB530F05D10622401C491CFEF7AE
:1025200038F808B1002010BD012010BD800701D08F
:102530000020704701207047C3688B4206D81144C1
:102540000069491E814201D8012070470020704770
:1025500010B500F24B2300229C5C0CB1012203E079
:10256000521C062AF8D30022012906D002290CD0D9
:1025700003290FD0042915D110E0817929B190F8F1
:10258000241011B90AB1012010BDC17911B10AB1ED
:10259000022010BD017A09B1032010BD407A08B1B4
:1025A000042010BD002010BD10B501220221002022
:1025B00002F008F808B1072810D1072202210120F3
:1025C00002F000F808B1072808D100210A220846C5
:1025D00001F0F8FF08B1072800D1002010BD70B548
:1025E0008CB015460E4600236C46C3F10F01415CCA
:1025F000E1545B1C102BF8D30D2104F11000FDF702
:102600009CFF0020C0F10F02315C2244401C117479
:102610000328F7D3684646DF0020C0F10F012144AC
:1026200091F820102954401C0328F6D30CB070BD3B
:102630007CB5FF2401258DF8004001AA69460820D9
:102640000195FEF79FFB08B1FF207CBD9DF80000BF
:10265000A5280DD104F034F940B2EE2658B1012876
:102660001CD000220FA10220FEF772FB8DF8006043
:102670009DF800007CBD002215490220FEF768FB92
:1026800000F04AF80E2803D028B18DF80040EFE79B
:10269000002210A1E7E78DF80050E9E7A5208DF8AA
:1026A0000000E5E75B414C495041595D5B455252A2
:1026B0004F5D5345206765745F62696E645F737434
:1026C00061747573206572726F72210A00000000D8
:1026D00048BE0C005B414C495041595D5B4552522C
:1026E0004F5D5345206572726F72207768656E206A
:1026F000756E62696E642E0A0000000009F094BDD8
:1027000008B58DF800000820FEF736FB0122694667
:102710000820FEF73CFB08BD10B509F049FE020099
:1027200008D00DA10220FEF713FBEE20FFF7E8FF13
:102730000E2010BD0720FEF71FFB040006D0024646
:1027400010A10220FEF704FB204610BD0120FFF778
:10275000D7FF002010BD00005B414C495041595D3E
:102760005B4552524F5D72657365745F736520659A
:1027700072726F72214572726F72204E4F2E3A251F
:10278000642E0A005B414C495041595D5B455252F1
:102790004F5D556E62696E64696E67206572726F17
:1027A00072214572726F72204E4F2E3A25642E0AA6
:1027B0000000000010B54FF480610D48FDF7BDFE2C
:1027C0000C4C4FF400710C48A160FDF7B6FE4FF0C1
:1027D000FF30E0600020E0802070A0706070E0704A
:1027E000207105481921BDE810401938FDF7A5BE34
:1027F000ACA6022014700020C5AA0220D0F8D80090
:1028000008B1002070470120704700000149C978D5
:1028100001F04AB8585800202DE9F843044600203A
:1028200005261546884608270090ACE094F8DC1091
:10283000092970D2DFE801F005222D406670767C10
:10284000A300421C009218F8000084F8DD0010B1CB
:10285000012811D108E0042184F8EC1004F13C00B7
:10286000C4E93407012087E084F8EC6004F1BC007F
:102870000121C4E934011BE008207DE000EB0801E0
:10288000001DCA78096862F31F61C4F8081100903E
:1028900010E0421C009218F80010D4F8E82004F56B
:1028A00086701154D4F8E80021B1401CC4F8E80047
:1028B000022061E003205FE0421C009218F8000053
:1028C000C4F80001D4F8D4108842D5D20C22D4F830
:1028D000D01002EB001009582046C4F80411FFF78D
:1028E0008DFF0028C8D12046D0E94023D4F8FC1041
:1028F00000F0FAFB20B1D4F8D800401EC4F8D8008C
:10290000042039E0421C009218F80000A4F8FC00F2
:1029100084F8DC6037E034E06A464146204600F047
:10292000ECFB29E06A464146204600F083FB23E0A9
:10293000B4F8E410B4F8FC20914204D2491CA4F885
:10294000E410401C0090B4F8E410B4F8FC0081429C
:1029500011D12046D0E94023D4F8FC1000F0C4FB8C
:1029600018B1216804F1EC0088472046FFF746FFC4
:1029700000289FD080E7072084F8DC0003E0009562
:1029800001E084F8DC700098A842FFF44FAFBDE886
:10299000F88300002DE9F041244C0546244E2070B8
:1029A000C0074FF6FF7709D0A6F8D070282106F1AE
:1029B000D200FDF7C2FD25F001002070207880468E
:1029C000800708D5A6F8607132211A48FDF7B5FDD9
:1029D00028F00200207020788046400709D515486D
:1029E000A6F8947132213430FDF7A7FD28F00400D9
:1029F000207020784FF0000102070AD50D4AA6F892
:102A0000C8711E3220F0080042F84A1F516011813F
:102A10002070FF2D00D131604FF4EA72064904485E
:102A200002F078FB0020BDE8F0810000A4590020EE
:102A3000247C0220867D02200090D1002DE9F04107
:102A400015460E46074600244FF4EA7229492A48E3
:102A500002F018FB2848294A0168914239D1012F18
:102A600006D0022F13D0042F20D0082F3ED12CE007
:102A7000B0F8D040282C2CD8002105E0421892F85C
:102A8000D2206A54491C89B2A142F7D32EE0B0F893
:102A90006041322C1DD8002105E0421892F86221D5
:102AA0006A54491C89B2A142F7D31FE0B0F894419F
:102AB000322C0ED8002105E0421892F896216A5473
:102AC000491C89B2A142F7D310E0B0F8C8410A2CE2
:102AD00002D90420BDE8F081002105E0421892F8F7
:102AE000CA216A54491C89B2A142F7D3002034603C
:102AF000F0E700000090D100247C02207755BBAAAB
:102B000070B5244B224C01281C6006D0022811D03D
:102B100004281CD0082833D126E0A3F8D0100020C8
:102B200005E0145C1D18401C85F8D240C0B28842F4
:102B3000F7D325E0A3F86011002005E0145C1D1810
:102B4000401C85F86241C0B28842F7D318E0A3F870
:102B50009411002005E0145C1D18401C85F8964176
:102B6000C0B28842F7D30BE0A3F8C811002005E0FB
:102B7000145C1D18401C85F8CA41C0B28842F7D3C6
:102B80004FF4EA720449034802F0C4FA002070BD11
:102B90007755BBAA247C02200090D100C2618161DC
:102BA00004F041B972B600F0B5F8FEF7EBF9000099
:102BB0000D461446014644220A48FDF797FC094891
:102BC000A20029465030FDF791FC064C0220103C33
:102BD00020720BF0F1F96060204600F085F8FEF7F6
:102BE000D1F90000247A022010B50446002003F039
:102BF000F9FA204603F0CEFABDE81040012003F0B8
:102C0000F1BA03F01DBB70B5064614460D46002010
:102C100003F0E8FA22462946304603F011FBBDE8EE
:102C20007040012003F0DEBA70B5054616460C462A
:102C3000002003F0D7FA32462146284603F060FB15
:102C4000012003F0CFFA304670BD00002DE9F047B7
:102C5000824614460D4641F0FF06002003F0C2FAFA
:102C6000002710E0E819010B804600058946000D99
:102C700008D1084603F08EFA43464A4616A10020C2
:102C8000FEF746FB7F1CA742ECD3C5F18070A04243
:102C900000D20446A046002715E000BF05EB08005F
:102CA000B04202D9701B00F101080AEB070042464E
:102CB000294603F079FB00280BD04744751CA4EB90
:102CC000070806F58076A742E8D3012003F08AFAC8
:102CD0003846BDE8F0870000733A25642C20616413
:102CE00064723A25640D0A0010B5094C0146A02211
:102CF000201DFDF7FBFB01202071002060710420E6
:102D0000A0714FF055302060C4F8AC0010BD000039
:102D100000FC032070B50E4600216FF48043C318F9
:102D20001DD0012B16D048F688030F4CE360C4E990
:102D3000050629B1842204F11C00FDF7D7FB2561AB
:102D4000012020720BF038F96060BDE87040064841
:102D5000FFF7CABF158849F699135168E5E7D2E92C
:102D600001131568E1E70000147A02200149487157
:102D700070470000C05E00200120704700207047AF
:102D80002DE9FC41466815460F46044656B1207BA6
:102D9000002809D030460CF077FF002804D000202E
:102DA000BDE8FC810820FBE7EFF30580256008B350
:102DB0000025019501AB3A460921304600950CF0FB
:102DC0003BFF01282BD10CF0C1FD024601AB0621CF
:102DD000304600950CF030FF012820D1019800B357
:102DE00011494FF08050086040BFBFF34F8FBFF3D1
:102DF0006F8F16E0022500233A46042130460095E5
:102E00000CF01AFF01280AD10CF09AFD02460023AB
:102E10000121304600950CF00FFF012801D004205D
:102E2000BEE701202073BAE704ED00E07CB504465C
:102E30004068002500280CD0EFF30581B9B1019559
:102E400001AB0022082100950CF0F6FE012817D1F5
:102E500001E008207CBD0198A0B10C494FF08050E2
:102E6000086040BFBFF34F8FBFF36F8F0AE00221AE
:102E7000002300911A4603210CF0DEFE012801D048
:102E800004207CBD257300207CBD000004ED00E023
:102E900030B5EFF3108172B60D4A9468012324B166
:102EA0000370002900D162B630BD93604FF0E0237B
:102EB000D3F88051074C25401560C3F88041D3F802
:102EC000844154605A17C3F8842100220270E8E755
:102ED00090760020FC06FFBD0B498A68002A11D0BD
:102EE00000280FD1EFF3108072B60B684FF0E0228C
:102EF000C2F800314B68C2F8043100228A60002811
:102F000000D162B670470000907600200D4614464E
:102F1000014644220A48FDF7E9FA0948A200294679
:102F20005030FDF7E3FA064C0320103C20720BF002
:102F300043F860602046FFF7D7FEFEF723F8000055
:102F4000247A022070B5054608680C46411C04D05E
:102F500006F09BF8206805F078FF6068411C02D0FD
:102F6000002105F057FF2968A069C1F82405607D9C
:102F7000227D29681043C1F86C05D4E90012286845
:102F8000C0F81425C0F80C15207D012814D1A068C4
:102F9000411C02D0002105F03DFFE068411C04D037
:102FA00006F073F8E06805F050FFD4E902122868D3
:102FB000C0F80825C0F8101570BD70B50546086842
:102FC0000C46411C04D006F06AF8206805F047FF63
:102FD0006068411C02D0002105F025FF2968A06926
:102FE000C1F82405607D217D2A680843C2F86C057C
:102FF000D4E900122868C0F80C15C0F81425207D0B
:10300000012814D1A068411C02D0002105F00BFF5B
:10301000E068411C04D006F042F8E06805F01FFFAC
:10302000D4E902122868C0F80825C0F8101570BD50
:1030300005F060B870B50446D0F8D000D4F800515F
:10304000082303EB0515455BB4F8E40085420FD96E
:10305000B4F8FC50A8420BD21068451C15600A5CFD
:10306000B4F8E400D4F80451411CA4F8E4102A5444
:10307000B4F8E400B4F8FC10884209D0D4F8002178
:10308000D4F8D01003EB0212895A491E814229D18B
:10309000FC3494E80E00FC3C204600F025F828B1F2
:1030A000B4F8E420D4F8041100208854B4F8E40003
:1030B000B4F8FC10884201D2072070BDFC3494E8BB
:1030C0000E00FC3C204600F00FF818B1216804F116
:1030D000EC0088472046FFF791FB08B1082070BD3F
:1030E000032070BD062070BDD0F8D00000EB0210A8
:1030F0000078012800D00020704710B50446106801
:10310000431C1360085CB4F8FC1051EA0020A4F8DA
:10311000FC004FF00001A4F8E41010D054F8D00FD8
:103120000822216B02EB0112825A32B10C2202EB0F
:103130000111405808B1062010BD072010BDFC3415
:1031400094E80E00FC3C2046FFF7CEFF18B1216842
:1031500004F1EC0088472046FFF750FB08B1082037
:1031600010BD032010BD00002DE9F0438046058806
:10317000384800268BB001783246284600F0ACFB78
:1031800098F80500400701D4002154E005F5807748
:10319000B8B203AB0122072108F01AF8010003D0EE
:1031A000284609F04FFEEFE7284604F021FA4FF6D3
:1031B000FF710446884225D18946049804F082F9BB
:1031C00004464946484510D00146284604F0F0F927
:1031D0002846FFF71BFBA8B9284609F0C9FD284679
:1031E000FFF714FB0028CFD00CE00E4608F028F9BA
:1031F0000446B04201D10421D2E70146284604F03A
:10320000D7F90126B8B22246072108F047F8010095
:1032100010D0862913D0284609F014FE002140461C
:1032200007F0F4FE002E02D0204604F0CBF90BB0DC
:10323000BDE8F0830121404607F0E8FEF7E71822D9
:10324000054905A8FDF752F9ADF8165005A802F09A
:10325000CDFBEFE758580020B4FD00002DE9F04702
:103260004FF000094FF0FF3AE0B1D9B1D2B1CBB184
:10327000890704D000201860801EBDE8F087002177
:103280008C460F460C46032623E0DFF858800CF1ED
:10329000010C18F80550FF2D04D0FD2D19D0FE2D7E
:1032A00002D003E05046E8E70025761E7F1C45EA81
:1032B0008111042F0DD10D0C1555641C012E02D95E
:1032C0000D0A1555641C022E01D91155641C0021EC
:1032D0000F4610F80C50002DD7D103B11C604846A2
:1032E000CBE70000A8B40C002DE9F84F05004FF023
:1032F00000009A46009017D0B1B181460320B1FB7F
:10330000F0F300FB13132BB1B1FBF0F300FB131030
:10331000C0F1030901EB090806204FEAC801B1FB1F
:10332000F0FB144600263DE04FF0FF30BDE8F88F7B
:10333000287833498008085C2070A8F10300B04267
:1033400039D1B9F1000F36D0B9F1010F03D0B9F17D
:10335000020F19D023E028780222062101F08CFC0C
:10336000074668780422002101F086FC3844244F87
:10337000C0B20222385C60706878042101F07CFCE5
:10338000385CA0703D2009E028780222062101F077
:1033900073FC1B49085C60703D20A070E070241D28
:1033A000ED1CF61C4645C3D3BAF1000F01D0CAF894
:1033B00000B00098BAE728780222062101F05CFCF0
:1033C000074668780422002101F056FC39180C48A1
:1033D0000222405C60706878042101F04DFC0746D1
:1033E000A8780622002101F047FC39180448405C07
:1033F000A070A87800F03F010148405CCEE70000D3
:1034000068B40C0038B5FFF713F9044607281CD040
:103410000720FDF7B1FC08F0CBFF020007D01849E8
:103420000220FDF795FCEE20FFF76AF909E0EE2C8B
:1034300002D00020FFF764F9432212A10520FDF716
:1034400087FCBDE83840FFF7B5B9002000901A4866
:103450000422C0688DF80000010A8DF80110010CEB
:103460008DF80210000E8DF8030069460120FDF76B
:103470008EFCA520FFF744F94F2210A1DEE70000E3
:1034800090BE0C005B414C495041595D5B54524128
:10349000435D5B25645D42696E6764696E672066A3
:1034A00061696C2120416C6C206974656D206465D4
:1034B0006C65746564210A00147000205B414C49FE
:1034C0005041595D5B545241435D5B25645D4269E7
:1034D0006E6764696E67204F4B2120416C6C2070D1
:1034E000726F636573732066696E697368656420C3
:1034F00073756363657373210A00000070B515006E
:10350000044609D00020286034B1206820B1A07999
:10351000800703D0072070BD0E2070BD084600F064
:1035200081F9C0B2142804D02179814203D8042043
:1035300070BD052070BDE288216800FB0210286084
:10354000002070BD18B504460020ADF800001346F9
:103550006A46204600F006F8002802D0BDF80000B8
:10356000204418BD70B588B182B10024158803E0ED
:10357000065D641C3444A4B2A54203D806197678CB
:103580009E4201D08C42F3D38C4201D3002070BD07
:10359000A11C1180005D401E80B270BD10B5028874
:1035A000102A1BD0112A20D0262A1DD1007A0C46C1
:1035B000012801D0022817D1A0780521401CB0FBBA
:1035C000F1F201FB1201204600F01EF800280BD09A
:1035D000A16B002908D0BDE810400847C27B012A32
:1035E00002D18088A1F8480210BD0C46002184F861
:1035F00052128088B4F848128842F5D12079002808
:10360000F2D10121DFE770472DE9F041044600784F
:103610000F4698B1A7700025C4F84A52A4F84E523C
:1036200084F85052A079012608B1012F09D0E07921
:1036300080B1012F05D0022F03D00BE00820BDE898
:10364000F081616B21B184F851620820884701E064
:1036500084F8515239462046FEF77AFFA070616B1C
:1036600041B1032801D0042804D1607910B194F845
:103670005202A0B184F8535204F13C0018210746CD
:10368000FCF75BFF04F12C0084F83C60804607F0F7
:10369000B7FF58B194F82C0084F8510008E084F882
:1036A000545284F8536207208847E5E784F8516054
:1036B00094F8240050B1404607F0A2FF20B194F8DE
:1036C000280084F8520001E084F8526084F85050D9
:1036D000A078052817D2DFE800F02E03080D1200AD
:1036E0003946204609F04AFC0DE03946204609F0EB
:1036F0002FFC08E03946204609F050FC03E039462B
:10370000204609F071FCA07870B13A4604F15400EB
:10371000D4F8441272DF002891D194F8301094F854
:10372000540073DF00288AD1616B11B194F8310025
:103730008847002083E784F83150F5E702880E4976
:10374000102A13D0112A13D0502A14D10B4A801DED
:103750001278002A0FD002880B899A420BD08988F0
:103760008A4208D141890C30FEF7C8BF808801E049
:103770004FF6FF70088070475C7E0220AC59002035
:1037800000B5024600889DB0112838D0382814D0E2
:1037900039283BD10B4602F10A0091881A899142DF
:1037A00034D101889A8C91421ED182881DB0811D2E
:1037B00018465DF804EB07F057BC088993889842D7
:1037C00024D1108958B14B8B984208D106208DF82E
:1037D0000000D088ADF80C000968684688471DB025
:1037E0005DF804EB0BF034B89A8E91420ED18288CA
:1037F0001DB0811D18465DF804EBFFF70DB8088970
:103800009288904202D14FF6FF7008811DB000BD32
:103810000179032902D280790C2801D3072070474F
:103820000020704710B5044600F076F808B1204635
:1038300010BD142010BD000010B5044600F06CF857
:10384000002805D02146BDE81040024804F0D6BE4D
:1038500010BD0000B471002070B515460E46044638
:103860000BF038FA002809D0054800EB8400806985
:103870002A463146BDE8704002F03EBE70BD0000F1
:10388000A471002070B50546002400F045F838B159
:103890002946044804F0B2FE08B1022400E00124E5
:1038A000204670BDB071002070B505460C46084634
:1038B0000BF010FA60B1284600F02EF840B1054830
:1038C000294600EB8400BDE87040183004F096BE35
:1038D000002070BDA471002070B5054614460E4648
:1038E00008460BF0F7F9002812D0284600F014F82B
:1038F00000280DD00748294600EB860018301CB17F
:10390000BDE8704004F085BEBDE8704004F036BEEE
:1039100070BD0000A4710020142801D3002070475E
:103920000146014804F06ABEA871002070B5050088
:1039300046D0002944D0234E3078002840D0288833
:103940000C46112815D0302804D0322807D033284F
:103950001ED109E0291D204607F030F818E0291D86
:10396000204606F09DFE13E0291D204606F0AEFF1E
:103970000EE0A988B4F8CA220020914207D184F849
:10398000C70284F8C8024FF6FF71A4F8CA1270701B
:1039900094F8C802002813D02888302810D34F2864
:1039A0000ED8A888B4F8CA12884209D196F9010045
:1039B0000A2805DA204601F087FE7078401C7070F6
:1039C00070BD0000B059002010B54FF0FF3100204D
:1039D0003DDF00280BD1B1213CDF002807D104488E
:1039E000416901208847022005F0FCFB002010BD42
:1039F00000750020044810B5006841690020884720
:103A0000BDE81040FFF7E0BF7858002010B500284F
:103A10000FD001881B4C502926D00BDC10291DD05B
:103A2000112906D1A1888088814202D14FF6FF700A
:103A3000A08010BD512913D05329FAD1C088E18844
:103A40008842F6D1607E0028F3D0FFF7D3FF00282C
:103A5000EFD06169BDE81040022008478088E7E7A1
:103A6000BDE8104007F0AAB830F8061F62899142FD
:103A7000DFD141890229DCD10C3000F027FB207610
:103A800010BD0000007500202DE9F0410546007BC7
:103A90000426294C4FF00108012811D002282BD010
:103AA0000226287B314600F07BF818B12068416976
:103AB00003208847206841690220BDE8F04108479B
:103AC00020680027817E49B10621012000F068F8B6
:103AD00000282CD0206841690320EEE780F8198087
:103AE0000121084600F05CF8002820D02168112848
:103AF0004F76D6D10626D4E76A7B142A19D8C2B1EC
:103B00000E4F05F10E01381DFCF7F0FC687BB86123
:103B100021683846897E0029C3D1A0F10C010A68CA
:103B2000011F90470028BCD1216881F81A80BDE8A8
:103B3000F0810526B5E700007858002028750020A0
:103B400070B5154900250A68002A24D04A68002A61
:103B500021D00831904708281DD0104C002820683B
:103B600085760ED00621022000F01AF818B12068E0
:103B7000416903208847206841690220BDE8704000
:103B800008470121022000F00BF8002803D020682C
:103B900041690320F2E770BD1C75002078580020B1
:103BA00086B00323ADF8003020238DF814308DF853
:103BB000150000220E48019202928DF81610C1885D
:103BC000ADF8041002218DF8061005A90491ADF896
:103BD0000820CDF80CD0808801A9AEDF002804D1E0
:103BE000BDF80010032900D00C2006B0704700007B
:103BF0000075002010B51A4C0188606810290ED09D
:103C000011292BD1401E606028D1FEF7CDFC002881
:103C100024D02168002921D0BDE810400847D0B940
:103C200000210122084600F0CDFC08B107280FD181
:103C300007220221012000F0C5FC08B1072807D1A6
:103C400004220221002000F0BDFC20B1072802D090
:103C5000216801B188476068401C606010BD0000A9
:103C6000B85700202DE9F04701883B4E40F2F31988
:103C70004FF6FF7510291BD011293ED0122954D0C0
:103C8000502946D1C188F289841D914241D1618970
:103C900002293ED18688304603F058FD050038D011
:103CA00004F10C0000F016FAA8B3294630464EE0A5
:103CB000C17B8788044601292BD1A846284603F0FA
:103CC00045FD050017D02F80002028722348434669
:103CD0004A460168C5F80A104068C5F80E0004F1AC
:103CE000100105F10A0003F062FE6872F0890028F5
:103CF0000FD129462AE0042013E0808803F026FD36
:103D0000040006D06068FFF791F808B109F07EF86A
:103D10002580BDE8F087FFE76868FFF787F800288F
:103D2000F7D0BDE8F04709F071B8878806463846F5
:103D300003F00CFD0400ECD02B464A4606F10801C6
:103D400004F10A0003F033FE607221463846BDE8F4
:103D5000F04701F019B900008871002014580020C4
:103D60002DE9F04F0746858802883E48012197B02B
:103D70008346102A09D0112A4BD01A2A6ED1387ADC
:103D8000B1EB101F47D2012246E0364C083CA06838
:103D9000C0430B9061680BA804F04BFC0B990CA876
:103DA00001F0D3F82C220CA96846FCF79FFB0026F3
:103DB000E946A04610E000BF09EB46005FF00004B2
:103DC000B0F804A008EB84005146001D04F0D6FBB7
:103DD000641C1D2CF6D3761C0098B042ECD8142D30
:103DE00007D317B0E321BDE8F04F1FA20420FCF772
:103DF00061BA2946584604F00CFC294608F1040033
:103E000004F007FCF87B012828D016482946001D3D
:103E100015E029461AE000220221B1EB101F01D261
:103E2000012600E000260F49083901F11000041DA9
:103E3000294682B104F0EDFB36B12946204617B081
:103E4000BDE8F04F04F0E5BB2946204617B0BDE8B9
:103E5000F04F04F093BB04F091FBF5E717B0BDE819
:103E6000F08F0000AC7100202E2E5C2E2E5C2E2ECA
:103E70005C2E2E5C2E2E5C2E2E5C636F6D706F6E32
:103E8000656E74735C626C655C636F6D6D6F6E5CA8
:103E9000626C655F636F6E6E5F73746174652E63D1
:103EA0000000000010B504460748007800280AD03A
:103EB000204603F079FA204609F09CFB2046BDE835
:103EC000104002F033BC10BD4858002038B50446FD
:103ED000008821283DD00EDC294D10281BD0112848
:103EE00043D14FF6FF74204609F0F0FD6C80BDE829
:103EF000384009F0F3BD3B2838D0562835D1A0888A
:103F0000132176DF002830D01EA240F20131BDE837
:103F10003840FCF7CFB9072000F076FB20B119A29A
:103F200040F2D621FCF7C6F9A18869801F4804F049
:103F3000B4FC20B113A240F2D921FCF7BBF9A08850
:103F400009F0C4FD09F0C8FDBDE838400120FEF7C6
:103F50000DBF00200090A08869468FDF002804D0A4
:103F600008A240F2F121FCF7A5F938BDA088132181
:103F700076DF0028F9D003A240F2F921C7E700005C
:103F8000105F00202E2E5C2E2E5C2E2E5C2E2E5CC2
:103F90002E2E5C736572766963655C626C655F7317
:103FA0006572766963652E6300000000E486022076
:103FB0000A46014610460A88102A05D0502A05D024
:103FC000512A05D106F032BE06F02ABC06F016BF13
:103FD0007047F0B585B016460F4604001D4614D054
:103FE00004AA19466069FFF789FA00280BD1A5F5E4
:103FF0007F40FF380BD0049848B1007848B1308832
:10400000F42808D9072005B0F0BD0E20FBE70520F5
:10401000F9E70820F7E70020009001900290039054
:10402000A088ADF8000001208DF80200CDE90267FC
:1040300069462846AEDFE6E770B588B00446002939
:1040400024D0002C22D008462188102920D05029C5
:1040500024D057291AD10546A188406906AAFFF73E
:104060004DFA002812D1069E307800280ED0182173
:104070006846FCF762FA01208DF800000195A088DF
:10408000ADF808000396A9696846884708B070BD76
:1040900008B02146BDE8704006F08CBB08B0214650
:1040A000BDE8704006F068BE13B507494B88A3F51C
:1040B0007F41FF3906D00146034801AA0830FFF7C7
:1040C00088FF1CBD08201CBD105F00200078C0F3D5
:1040D00040007047007800F00100704710B50446BA
:1040E000008888B0A0F57F42FF3A2CD001228DF8DD
:1040F00010208DF81110080A8DF81200080C8DF8A8
:104100001300002002900421009001900390ADF86C
:104110001C10A388ADF800308DF8022004AB07AA6C
:104120000590ADF804000292ADF814100393ADF8B9
:1041300016000693A188208805AAACDF208869466E
:10414000AEDF08B010BD0020FBE7000010B502880C
:10415000102A19D0112A19D0502A1AD130F8062F56
:1041600009898A4215D14189022912D10C30FFF701
:10417000B1FF00280DD00748006880470146BDE820
:1041800010400548FFF7AABF808801E04FF6FF7096
:10419000088010BD005F0020C486022000B589B0F1
:1041A00018220A4903A8FCF7A1F906AB0DF10C0C83
:1041B00093E807008DE807009CE80E00012002F05C
:1041C00083FE002008F03AFF09B000BD08B40C00DF
:1041D00000B589B018220A4903A8FCF787F906AB95
:1041E0000DF10C0C93E807008DE807009CE80E0029
:1041F000022002F069FE002008F042FF09B000BD75
:1042000040B40C0000B589B018220A4903A8FCF795
:104210006DF906AB0DF10C0C93E807008DE8070073
:104220009CE80E00002002F04FFE0AF09DF809B055
:1042300000BD000008B30C0010B509F059FEFFF7EF
:10424000E1FFFFF7ABFFFFF7C3FF00F019F800F045
:1042500063F82B2004F017FE01212B2004F06AFFE5
:10426000212004F010FE0121212004F063FF2C2006
:1042700004F009FE0121BDE810402C2004F05ABFD3
:1042800000B59BB028221F4911A8FCF72FF91C226A
:1042900014A96846FCF72AF90DF1440C00209CE8AB
:1042A0000E0002F019FF002008F032FF0021164A2C
:1042B000084602F087FE154A0121002002F082FE26
:1042C000134A0221002002F07DFE0E4928222831E7
:1042D00007A8FCF70BF91C220AA96846FCF706F9A7
:1042E0000DF11C0C01209CE80E0002F0F5FE0020F0
:1042F00008F0D6FF074A0021012002F063FE1BB040
:1043000000BD000068B30C0009D1000001D100001D
:10431000F9D0000019D30000084808B590E80E0055
:1043200007480090002002F06FFF032200210120C7
:104330000BF0DEF80249091F886008BDE8B30C00E5
:10434000946F00202DE9FF4F85B08046129F1446E0
:104350008A46B88A03F004FD0546F88A03F000FD9A
:10436000CDE9024806466FF004049DB1A6B14FF0B6
:10437000000B787E012813D080B3022838D028465D
:1043800003F0ECFC304603F0E9FC6FF0050009B0E7
:10439000BDE8F08F2046FAE7284603F0DFFCF9E796
:1043A000BC8A5146E01E504505D220204FF001093D
:1043B0002870E41E04E00C464FF0000985F800B0B8
:1043C0006C702246A81C0399FCF790F8A01C81B2DF
:1043D000284603F0F9FE2919887011E0FFE7002450
:1043E0001020287085F801B04FF00209A87007E08E
:1043F00000241F21297085F801B04FF00509A9702C
:10440000CDE9009703233246E11C284600F065F809
:104410005FEA000807D0284603F0A0FC304603F00E
:104420009DFC4046B3E7B9F1050F13D03178012068
:10443000B0EB911F16D1396996F80180B87F884793
:1044400008990424C1F800B08021297085F801B0D2
:10445000A9700DE0284603F081FC304603F07EFC95
:10446000002094E70398AAEB040A2044039080E715
:10447000CDE9004708F1030332460321284600F046
:104480002CF85FEA000920D13078810901D1042C91
:1044900009D00121B1EB901FEAD1032CE8D170784B
:1044A00004248046E4E77278B11C0298FCF71EF8F9
:1044B00002984044029008980168414401603078B5
:1044C000800602D503240020EBE7284603F046FCD3
:1044D000304603F043FC484659E72DE9FF5F0027CB
:1044E000DDE90E85994692468B463C463E4605E000
:1044F00026B1012E19D06FF0010761E0AA68594674
:104500000098904710B1641CE4B216E0B8F1050FB2
:1045100004D0687F0126296988474AE02969E87F35
:104520008847002004B0BDE8F09FEA68494650463D
:10453000904720B1641CE4B20026287FEBE729698C
:10454000687F8847A9F1010081B2504603F03CFE24
:104550000AEB090111F8011C884228D19AF80000E1
:104560000121B1EB901F09D1B8F1000F28D0B8F1AB
:10457000020F25D0B8F1030F22D018E081090DD029
:104580006FEA901189070DD00221B1EB901F0ED177
:10459000C00709D0641CE4B200260AE0B8F1040F99
:1045A0000ED004E0E87EB6E7B8F1010F08D0641C35
:1045B000E4B2A87E00EB4000A04299D86FF0020759
:1045C0003846AFE770B50023032810D20D4D00EB3D
:1045D0004004012A02D101290CD00022094E00EB2F
:1045E0004000304461B1012906D0022906D00723DA
:1045F000184670BD0E30C2B22A55F9E74270F7E78F
:104600008270F5E7447000200020704730B5034603
:1046100010460022064C07E09D5C4540EDB2521C5E
:1046200054F8255085EA10208A42F5D330BD0000A9
:10463000588902201CB5044602F0DAFF00236A46BE
:10464000092106F087FE052805D10348012241799A
:104650002046FFF741F91CBD1C5800201CB5002165
:10466000009142F6A621ADF8001001218DF802104C
:10467000034901AA096801916946A0DF1CBD000039
:10468000A8FC000005494FF0FF32082841F820201F
:1046900002D3084480F85820704700005875002065
:1046A000F0B54FF0FF3512B10023082601E00823D2
:1046B0000C260C4C05E000BF54F823707F1C04D07E
:1046C0005B1CB342F8D32846F0BD26185DB286F8CD
:1046D000305044F82310002AF5D1E11881F8580031
:1046E000F1E70000587500200249084490F93000B5
:1046F000704700005875002008B5024690F8C602C1
:104700000B4600EB8001C1EB801002EB400092F8F9
:10471000C52242B1521ED2B202EBC20100EB4102ED
:10472000518A491C00E0C188ADF800100089ADF83D
:104730000200694618469DDF08BD70B504464FF675
:10474000FF750A462846AC4209D14FF480742146D1
:10475000104603F02EFF80B2A0420BD070BDFF2C9C
:10476000FCD82146104603F014FF90F0010F01D051
:10477000204670BD284670BD70B5084C050009D0B4
:1047800010342168002907D008682060496828464D
:104790008847F6E70834F4E770BD00004475002050
:1047A000054A012120B1012805D19170FFF7E4BF2E
:1047B00051700020FAE77047447500202DE9FC474E
:1047C000304C80460026A0680090E0680190607838
:1047D00015468A46B146D0B1A078A8B92A48012624
:1047E0008269C8F8002040692169001F88420BD304
:1047F00062691144814207D3BAF1010F04D902263C
:104800004FF00109C8F80400207938B90BE0FBF734
:104810003BFE0746FBF735FE874204D101AA6946F5
:10482000284602F069F8A07838B10098854203D391
:1048300001990844A84200D20546D4E904100C1896
:10484000DDE900028318AB4219D92A68101FD2078C
:1048500013D0884211D384420FD3102E0DD2564567
:104860000BD2022E06D1B9F1000F03D0D8F80420E4
:10487000824202D048F82600761C2D1DE3E7304620
:10488000BDE8FC8780590020A47B02202DE9F0417F
:1048900090B006460D462022684906A8FBF726FE82
:1048A000674CA0680E90E0680590207858B1607859
:1048B00098B1624A63A1163A65A0FDF75BF96CA056
:1048C000FDF758F9FEE75D4A6AA1163A60A0FDF7C8
:1048D00051F967A0FDF74EF9FEE74FF0010884F8A3
:1048E000018066A0FDF746F961A0FDF743F900F0ED
:1048F00005F9524FC6F380002071D83FB0B10AF0DD
:10490000A3FA10B10AF0A0FA00E05DA07A6A0146AD
:104910001046FDF72FF956A0FDF72CF9FBF7B1FD76
:10492000054605AA0EA901F0E7FF05E0B86AFDF704
:1049300021F94FA0FDF71EF905F12001304609F0DD
:10494000B3FA06460E98864203D305990144B14254
:1049500001D284F802803246059900F0E3FEA07887
:10496000494C00283DD1F86AFDF704F940A0FDF755
:1049700001F92A68226069686160A868A060EB6834
:10498000E3602F6927616F696761AF69A761ED69AE
:10499000E561DDE908570091CDE90150CDE90373E8
:1049A000DDE9061339A0FDF7E5F831A0FDF7E2F8DF
:1049B0000DF104080C98E3690D9AA16988E80F00CD
:1049C000606900900B9B226930A00A99FDF7D2F82C
:1049D00027A0FDF7CFF838A0FDF7CCF824A0FDF70D
:1049E000C9F84548006844F8200F4348001D007886
:1049F0002071414810300068A0603F48401D007899
:104A000020733D481430006820613B48801D0088B9
:104A1000A082394808300068A06137480C3000880F
:104A2000E061354818300088206200F0F3FF30461E
:104A300006F066FF10B0BDE8F08100006C010100D7
:104A400080590020216F6E5F6661756C74000000F4
:104A5000282573292068617320617373657274203F
:104A60006661696C65642061742025732E00000006
:104A70000D0A0000696E69745F6F6B000000000032
:104A80004E4F5F4E414D4500A47B022020202573F0
:104A90003A2025303878202025733A202530387880
:104AA000202025733A2025303878202025733A209D
:104AB00025303878000000003D3D3D3D3D3D3D3D09
:104AC0003D3D3D3D3D3D3D3D3D3D3D3D3D3D3D3D16
:104AD0003D3D3D3D3D3D3D3D3D3D3D3D3D3D3D3D06
:104AE0003D3D3D3D3D3D3D3D3D3D3D3D3D3D3D3DF6
:104AF0003D3D3D3D3D3D000024ED00E010B5074843
:104B0000074BA3F120020068A2F12001FDF732F863
:104B1000BDE8104003A0FDF72DB80000940001008F
:104B2000F47A02200D0A0000F0B5414D93B006461C
:104B3000A8681090E868119028780C4650B1687801
:104B400088B13C4A3CA13FA0FDF714F845A0FDF711
:104B500011F8FEE7374A44A13AA0FDF70BF841A04F
:104B6000FDF708F8FEE701276F70C6F38000287193
:104B700030B1FBF786FC044611AA10A901F0BCFE77
:104B800004F12001304609F08FF9064610993848A3
:104B90008E4203D3119A1144B14201D2AF7011E099
:104BA000A97879B92168016061684160A168816074
:104BB000E168C1602169016161694161A169816147
:104BC000E169C1612B49096840F8201F2949091D85
:104BD0000978017127491031096881602549491D0B
:104BE0000978017323491431096801612149891D3C
:104BF000098881821F490831096881611D490C318A
:104C00000988C1611B4918310988016200F002FF5F
:104C100040216846FBF791FC324610216846FFF7B9
:104C2000CDFD024669461248FEF770F913B0F0BD9B
:104C3000805900208C010100216F6E5F6661756CE8
:104C40007400000028257329206861732061737344
:104C5000657274206661696C6564206174202573D7
:104C60002E0000000D0A0000696E69745F6F6B0012
:104C7000A47B022024ED00E08840C0B2D040704701
:104C800010B50446782003F089FE38200AF090FA27
:104C90004FF4AF7003F082FE0121262004F045FAA4
:104CA0000A2003F07BFE0021262004F03EFA0A20B1
:104CB00003F074FE0121262004F037FAEB200AF0FD
:104CC00077FA02200AF08AFAD7200AF071FA6820EF
:104CD0000AF084FAD1200AF06BFA01200AF07EFA79
:104CE000E8200AF065FA55200AF078FA06200AF062
:104CF00075FAC0200AF05CFAEA200AF06FFAB220D6
:104D00000AF056FA01200AF069FA02200AF066FA5F
:104D1000B4200AF04DFAE5200AF060FA77200AF094
:104D20005DFAF1200AF05AFAFF200AF057FAFF2044
:104D30000AF054FA4F200AF051FAF1200AF04EFA24
:104D4000FF200AF04BFAFF200AF048FA4F200AF041
:104D500045FAB7200AF02CFA00200AF03FFAB020FA
:104D60000AF026FA78200AF039FA11200AF020FA1F
:104D70004FF4FA7003F012FEBD200AF019FA012078
:104D80000AF02CFAC7200AF013FA80200AF026FA5B
:104D9000E9200AF023FAD6200AF00AFA01200AF0E4
:104DA0001DFACB200AF004FA25200AF017FA362063
:104DB0000AF0FEF990200AF011FA3A200AF0F8F908
:104DC00010200AF00BFA72200AF0F2F900200AF023
:104DD00005FA04200AF002FA80200AF0FFF9FA200E
:104DE0000AF0FCF9B5200AF0E3F902200AF0F6F91E
:104DF00000200AF0F3F9B9200AF0DAF923200AF0CA
:104E0000EDF974B1B8200AF0D3F908200AF0E6F9F8
:104E1000D6200AF0CDF903200AF0E0F939200AF093
:104E2000C7F92A200AF0C4F900200AF0D7F93B207C
:104E30000AF0D4F92B200AF0BBF900200AF0CEF9D1
:104E4000EF200AF0CBF935200AF0B2F900200AF081
:104E5000C5F9D0200AF0ACF91F200AF0BFF974B9E7
:104E600038200AF0A5F9B8200AF0A2F908200AF0C3
:104E7000B5F9D6200AF09CF901200AF0AFF92920F3
:104E80000AF096F9D8200AF093F901200AF0A6F961
:104E9000C4200AF08DF9F1200AF0A0F9D8200AF018
:104EA00087F903200AF09AF9E3200AF081F9BDE8B6
:104EB000104002200AF092B92DE9F04186B000249A
:104EC0000F46804601256E46385DFF2823D0C10974
:104ED00020F0800046F82400049004A807D004F0D5
:104EE000BBF8049905FA01F1C0F8081506E004F0D2
:104EF000B3F8049905FA01F1C0F80C1556F824002E
:104F0000049004A804F0A8F8049A032100EB82009E
:104F1000C0F8001703E04FF0FF3046F82400641C8F
:104F2000E4B2042CD0D3D8F800106B46002000BFA8
:104F300001EB800253F82040C2F86045401CC0B22B
:104F40000428F5D306B0BDE8F08173B58CB00646F1
:104F5000002000900D9880B100246D4621460DA8D8
:104F600003F04CFB30B1009805EB400084800098C2
:104F7000401C0090641C142CF0D32C22694630464F
:104F8000FBF7B4FA0EB070BD38B54A7A0F4B62B178
:104F900000220A725969002906D001228DF80020EA
:104FA000ADF802006846884738BD0A7A62B19B684E
:104FB0004C68024619462046FDF7E2FE0028F3D071
:104FC000BDE8384007F022BF5B68F1E78871002038
:104FD000F0B587B016460F4604461D4618220B4909
:104FE0006846FBF783FA0A488DF80870ADF802406E
:104FF000ADF80A608DF80C50017800222046FEF7CB
:105000006BFC684600F0F2FC07B0F0BDCCFD000080
:105010005858002010B5044600F018F804480068FD
:10502000C16820468847BDE8104000F053B8000032
:10503000FC6F002010B5044C2068006880470120F8
:105040000AF044FA606010BDFC6F0020044840681C
:10505000002803D04FF47A710AF07ABB7047000041
:10506000FC6F002010B50446FFF7F0FF044800680D
:10507000C16920468847BDE8104000F02BB8000009
:10508000FC6F002070B514460D460646FFF7DEFFA4
:105090000548224629460068436930469847BDE8DE
:1050A000704000F017B80000FC6F002070B5144687
:1050B0000D460646FFF7CAFF054822462946006806
:1050C000436930469847BDE8704000F003B80000DF
:1050D000FC6F002004484068002804D000231A46D2
:1050E00019460AF05DBA7047FC6F002070B514468F
:1050F0000D460646FFF7AAFF0548224629460068E6
:10510000036930469847BDE87040FFF7E3BF0000F1
:10511000FC6F002070B514460D460646FFF796FF5B
:105120000548224629460068436A304698470446A7
:10513000FFF7D0FF204670BDFC6F00203EB5204C2D
:1051400000258DF80850206902AA01A9036A684663
:1051500098479DF8082072B1012A0BD1E088F02809
:1051600006D02089F02803D0A188608800F0C8F814
:10517000E58025813EBDE188F0290CD02089F0280A
:1051800009D041B138B1BDF800006081BDF804100C
:10519000A18100F065F8E0882189084307D19DF8D6
:1051A0000820BDF80410BDF8000000F00BF8BDF8B1
:1051B0000000E080BDF8041021816080A1803EBD28
:1051C000D46F00202DE9F04106460C4801270D461A
:1051D0004680818007700A48A0F120040680418043
:1051E000606A10B90AF0ACFB6062002229463046C2
:1051F00008F08AFFE761BDE8F081000080A6022088
:10520000F46F002010B500F047F80448006900680A
:105210008047BDE8104008F06DBF0000D46F00204B
:105220000D4810B5C068002815D00C4CE069002866
:1052300011D00AF085FB616A88420CD9401AB0F59A
:105240007A7F08D904F12000012241880088BDE856
:10525000104000F055B810BD9CA60220D46F00206D
:10526000034A0123508091801370022208F04CBF42
:1052700080A60220074C0020FFF760FF207820B1B5
:10528000401E10F0FF002070F5D1606909F070FE3B
:10529000F1E70000D46F00201CB50B49032007F094
:1052A00099F80A490420CDE900018201002308A1F0
:1052B00008480AF00BFB054C143C606909F058FEE5
:1052C000002020701CBD000021520000E86F00206B
:1052D000747000007552000010B5EFF31184402087
:1052E00080F3118805480178491C017040690AF073
:1052F0006FFCE0B280F3118810BD0000D46F002075
:105300002DE9F0410E4607460AF01AFB184C80467C
:105310000125E069002828D004F120010A2208882C
:105320004988381A711A00B209B203F0A7F8607000
:1053300010480121478086800170606A804509D944
:10534000A8EB0000B0F57A7F04D90A481C30C06889
:1053500000B103254FF000082A4631463846C4F80C
:10536000248008F0D1FEC4F81C80BDE8F081000064
:10537000D46F002080A602201FB500220092ADF855
:1053800000100192ADF802100292039202AA69463F
:1053900090DF04B010BD000070B5044686B01C4814
:1053A000012103F056F9BFF35F8F0026002821D1B9
:1053B0000025204601F04DFC68B1112812D0862846
:1053C0001AD0A0F54051023903D00146204607F01B
:1053D00025FD294607E006B029462046BDE8704075
:1053E00002F0BCBE0121204602F0B8FEBFF35F8F81
:1053F0000748066006B070BD182206496846FBF7EC
:1054000075F8ADF80240684600F0CCFAE1E700001C
:1054100028580020D4FC00002DE9FE43044600205B
:10542000009001900546029020780F467B285CD1C1
:10543000E01910F8010C7D2857D10020E84612E051
:10544000215C2C290ED1052D4FD2211811F8012CE9
:10545000222A07D111F8021C5C2903D028F8150074
:105460006D1CEDB2401CB842EADB052D3DD1002693
:105470000AE04EB108EB460030F8020C401C80B246
:10548000AE4203D1B91E04E00120F8E738F8161047
:10549000491E8BB2215C222927D1E15C222924D12B
:1054A00000211A1A521C07E000EB010C14F80CC082
:1054B000BCF13A0F08D0491C8A42F5DC761CAE429A
:1054C000D7DD0020BDE8FE830144891C0904090CD6
:1054D000A3EB010292B208D03AB1204421444078B3
:1054E00000F04AFC0028EDD1E8E70D20EAE70000D3
:1054F0007FB50C4610B1012004B070BD20790026A4
:1055000038B141F61D5501281BD0022826D00F20A6
:10551000F2E70220207102960396E0680190694646
:1055200001A806F0E7FD50B102988188E18000886B
:105530002081BDF80010029806F05AFEDCE70A2030
:10554000DAE70A4B6A460021A01D06F08FFD38B14C
:10555000064918398E61CE610A28CDD12846CBE79D
:1055600002488188019806F043FEF5E7D8580020EC
:105570002DE9F843054690F8C6020F4600EB80017E
:10558000C1EB801005EB400695F8C542914604EB4F
:10559000C40006EB40013279601C0A31904226D1EA
:1055A0006B460022284602F024FA18B310E0401E91
:1055B000A04201D1002004E004EBC40006EB40004F
:1055C0001C30804602466B46284602F012FA30B183
:1055D00000203870694648469EDFBDE8F88395F89C
:1055E000C5024146401C641C85F8C502E4B230790E
:1055F000A042DCD8012038700020EEE72DE9F0470A
:10560000894690F8C612904601EB8102C2EB8111E7
:1056100000EB4107384606F02DFE06002FD0194C4E
:10562000A06806282BD2184D762205EBC01039460B
:10563000A0F80280001DFAF759FF0027B9F1000F0A
:1056400004D0A06805EBC010077004E0A168022038
:1056500005EBC1110870A06805EBC011401CCE67B6
:10566000A060E16888420AD1002604E005EBC6107C
:10567000C16F8847761CE0688642F7D3A760BDE813
:10568000F0870000B0590020847F022070B50E46DC
:1056900090F8C612154601EB8102C2EB8111A0B051
:1056A00000EB410006F0E6FD040009D07C2205492C
:1056B0006846FAF71BFFADF8025068460196A0470E
:1056C00020B070BDD001010070B50E4604464FF405
:1056D0003371FAF732FF11480025A4F8CA628560D9
:1056E00084F8C9520E4884F8C65284F8C55200683E
:1056F00020602246012130469BDF0121112806D07F
:10570000002809D184F8C71284F8C85203E084F84D
:10571000C71284F8C812002070BD0000B0590020E4
:105720006C7F02202DE9F041064619481446194FB6
:10573000827875188AB1007908B1786900E0B86993
:105740002146FCF717FA14A0FCF714FAB44201D270
:10575000344602E0A54200D22C46F868FCF70AFA6B
:105760000DA0FCF707FA08E021460CA02268FCF720
:1057700001FA09A0FCF7FEF9241DA542F4D80EA0F9
:10578000FCF7F8F9BDE8F04103A0FCF7F3B900001D
:1057900080590020940001000D0A0000202061645F
:1057A00064723A20253038782020202064617461AA
:1057B0003A202530387800003D3D3D3D3D3D3D3DA2
:1057C0003D3D3D3D3D3D3D3D3D3D3D3D3D3D3D3D09
:1057D0003D3D3D3D3D3D3D3D3D3D3D3D00000000ED
:1057E00013460A460021FFF7F3BB10B503780022E9
:1057F000072B06D2DFE803F005040610202930004D
:105800000A7010BD01230B7003898B818388CB81C3
:10581000C06888600A7410BD02220A7002898A81F9
:105820008288CA81C2688A60807D062802D00020F2
:10583000087410BD0120FBE703220A70C2888A8128
:105840000289CA81C068886010BD04230B70C088BB
:105850008881CA818A6010BD0520087010BD0000D3
:105860007FB5174C0D460646EFF30580B0B1EFF358
:105870001184402080F3118896E80F008DE80F0016
:105880000F4800680DB1012300E0002300226946A3
:1058900009F004FFE0B280F311887FBD09F078FAC7
:1058A00096E80F008DE80F000DB1012300E0002302
:1058B00000226946206809F073FE09F073FA7FBD83
:1058C000886F002070B5064D0646002455F8241058
:1058D00009B130468847641C042CF7D370BD000022
:1058E000B876002030B50446006887B00D46806861
:1058F00000281FD018216846FAF71FFE0195A068FE
:105900000590207910B1012810D107E001208DF811
:10591000000020690290E068039005E002208DF805
:105920000000E068000302906069049020688168CC
:105930006846884707B030BD70B586B015460C0084
:1059400006461AD0112C18D0082C16D018216846FB
:10595000FAF7F3FDADF80260304601F049FEADF80C
:10596000040000200D2C0AD007218DF800100294AD
:105970008DF80C00684600F047F806B070BD0321B2
:105980008DF8001025B12978C90701D0012100E068
:1059900002218DF80C008DF8081041F20110ADF8CD
:1059A0000A00E7E710B50446408801F021FEA08018
:1059B000024801682046BDE81040084724580020EE
:1059C0002DE9F04107460024064E074D05E000BFD3
:1059D00056F8241038468847641CE8788442F7DB80
:1059E000BDE8F081B47400204858002010B504468A
:1059F000408801F0FDFDA080024801682046BDE816
:105A00001040084780FD0000014909680847000070
:105A1000FCFD000070B58C4D8C4C95F8380080076B
:105A200005D5206BFCF7A6F889A0FCF7A3F8A86BB6
:105A300040007DD595F82400F0B3C00705D0606B19
:105A4000FCF798F882A0FCF795F895F824008007F9
:105A500005D5A06BFCF78EF87DA0FCF78BF895F8C8
:105A60002400000705D5E06BFCF784F878A0FCF76C
:105A700081F895F82400C00605D5206CFCF77AF86B
:105A800073A0FCF777F895F82400800605D5606CC4
:105A9000FCF770F86EA0FCF76DF895F8240001068D
:105AA0000DD5C10701D1800709D5A96AD4F88C00AA
:105AB000FCF760F866A000E001E0FCF75BF895F801
:105AC0002C00B0B3C00705D0A06CFCF753F860A061
:105AD000FCF750F895F82C00800705D5E06CFCF732
