:020000040000FA
:1000000028D7022099040000A10400008D040000FC
:10001000A5040000A7040000A904000000000000DF
:1000200000000000000000000000000015020000B9
:10003000AD0400000000000059020000B1040000FF
:100040002D100000B30400007117000065150000BA
:1000500075150000B3040000550E0000D511000016
:10006000B30400003117000045170000B30400007E
:10007000B3040000B3040000B3040000B3040000A4
:10008000F11700005D110000B3040000B30400008C
:10009000B3040000B304000095150000B304000091
:1000A000B3040000B3040000B3040000B304000074
:1000B00085100000B30400000000000000000000F4
:1000C000B3040000B3040000B3040000B304000054
:1000D000C5110000B3040000B3040000B304000025
:1000E000B3040000B3040000B304000000000000EB
:1000F00000000000B30400000000000085150000AF
:1001000000000000000000000000000000000000EF
:1001100000000000000000000000000000000000DF
:1001200000000000000000000000000000000000CF
:1001300000000000000000000000000000000000BF
:1001400000000000000000000000000000000000AF
:10015000000000000000000000000000000000009F
:10016000000000000000000000000000000000008F
:10017000000000000000000000000000000000007F
:10018000000000000000000000000000000000006F
:10019000000000000000000000000000000000005F
:1001A000000000000000000000000000000000004F
:1001B000000000000000000000000000000000003F
:1001C000000000000000000000000000000000002F
:1001D000000000000000000000000000000000001F
:1001E000000000000000000000000000000000000F
:1001F00000000000000000000000000000000000FF
:10020000DFF80CD000F00EFD00480047FB8F000027
:1002100028D70220264B19680868B0E8F04F80F311
:100220000988BFF36F8F4FF0000080F3118870478B
:10023000000000000748006880F3088862B661B6D5
:10024000BFF34F8FBFF36F8F4FF4F07080F31188BF
:1002500000DF000000000000EFF30980BFF36F8FA4
:10026000134B1A681EF0100F08BF20ED108A20E90A
:10027000F04F106008B44FF0400080F31188BFF3D6
:100280004F8FBFF36F8F11F029FA4FF0000080F30A
:10029000118808BC19680868B0E8F04F1EF0100F0C
:1002A00008BFB0EC108A80F30988BFF36F8F7047E6
:1002B000C457002000B583B002900091019244F22F
:1002C000010071466A4602F08FFC03B000BD0000D9
:1002D00030B450E8012F93B2C48923448489A342E7
:1002E00028BF1B1B0489A34202BFBFF32F8F00202E
:1002F00007E0C3EA020340E80134002CE9D14FF0E3
:1003000001000A6030BC704750E8012FC2EA024287
:1003100040E801210029F7D1704730B450E8022F9E
:100320001FFAA2F3C488A34202BFBFF32F8F00209D
:100330000DE0C48923448489A34228BF1B1BC2EA61
:10034000034340E80234002CE8D14FF001000A607A
:1003500030BC704750E8022FC2EA224240E8022136
:100360000029F7D17047034653E8022FD988B2EB32
:10037000324F4FF0000017BF92B241EA014142EA0A
:10038000014104E05A68B2EB324F08BF012043E854
:100390000212002AE8D1704730B4044654E8000F36
:1003A0000D4644E80053002BF8D1156030BC70476F
:1003B00030B4044654E8000F40EA010544E8005315
:1003C000002BF7D1156030BC704730B4044654E8B8
:1003D000000F00EA010544E80053002BF7D1156037
:1003E00030BC704730B4044654E8000F80EA010581
:1003F00044E80053002BF7D1156030BC704730B48F
:10040000044654E8000F00EB010544E80053002BBC
:10041000F7D1156030BC704730B4044654E8000F83
:10042000A0EB010544E80053002BF7D1156030BC68
:10043000704770B404464FF0000054E8006F0D6838
:10044000AE4207BF44E80023012044E800630E6089
:10045000002B1CBF0020F0E770BC704730B404468E
:1004600054E8000F88422CBF451A054644E8005363
:10047000002BF5D1156030BC70470000EFF3088009
:100480007047EFF3098070476846704770466946C9
:1004900004F06AFDFFF7FEFF064880470648004764
:1004A000FEE7FEE7FEE7FEE7FEE7FEE7FEE7FEE724
:1004B000FEE7FEE7BD15000001020000202A04DB74
:1004C000203A00FA02F1002070479140C2F1200367
:1004D00020FA03F31943904070470000004870472A
:1004E0000CAF0D0010B5431A934209D28318881837
:1004F00003E010F8011D03F8011D521EF9D210BDD2
:1005000040EA01039B0703D009E008C9121F08C095
:10051000042AFAD203E011F8013B00F8013B521E15
:10052000F9D210BDD2B201E000F8012B491EFBD276
:1005300070470022F6E710B513460A4604461946EE
:10054000FFF7F0FF204610BD421E12F8013F002BBE
:10055000FBD111F8013B02F8013B002BF9D17047A8
:10056000421C10F8011B0029FBD1801A704710B5FE
:10057000002200E0521C835C8C5CA34201D1002B62
:10058000F8D1D8B2E1B2401A10BD30B5044600200F
:10059000034600E05B1C934203D2E05CCD5C401B51
:1005A000F8D030BD034611F8012B00F8012B002ACA
:1005B000F9D118467047000070B50F4D00B9286892
:1005C000002412E00A4602E09E4203D0521C137837
:1005D000002BF9D1DAB2224305D02BB124B100218E
:1005E00000F8011B04E00446401C0678002EE9D107
:1005F0002860204670BD0000B07000202DE9F04753
:1006000091460F4680460446002614F8015B2DB142
:10061000FFF764FF0068405DC007F6D12B2D02D0C4
:100620002D2D18D0641E4A463946204600F035FA72
:1006300027B13968A14201D1C7F8008071054FF098
:1006400002040BD54042002803DD01F0B1FA04603A
:10065000A007BDE8F08746F48066E4E70028F8DAF2
:1006600001F0A6FA04606FF00040F2E770B50646AC
:1006700001F09EFA046805460A2200213046FFF781
:10068000BDFF2C6070BD2DE9FE4F804681EA03005E
:10069000C00F0C46009021F0004123F00045B8EB5C
:1006A0000200A94105D24046214690461C460B4611
:1006B000024623F00040104347D0270DC7F30A003D
:1006C000C3F30A510290401A019040286BDAC3F339
:1006D000130040F4801B0098924620B10023D2EB17
:1006E000030A63EB0B0B01985946C0F140025046D8
:1006F000FFF7E4FE06460D4650465946019A00F0C3
:10070000BAF910EB08006141002487EA115284EA2B
:10071000E7731A4340D0009A62B3019A012A4FEA64
:10072000075215DC001B61EB02014FF0004202EAA8
:100730000752CDE90042001C41F5801132462B469C
:1007400000F009FA03B0BDE8F08F40462146F9E712
:10075000001B61EB0201001C41F5801300185B4196
:100760002018A2F5001747EB030140EAD570B6192F
:100770006D4111E06D084FEA360645EAC0754FEA53
:100780000752001B61EB0201001C41F58011490872
:100790004FEA30000019514132462B4603B0BDE804
:1007A000F04F00F0C9B90098012240000023D0EBBF
:1007B000020263EBE073009821464FEAE074B8EB65
:1007C000000061EB0401E9E783F000435BE781F09F
:1007D000004158E72DE9FE4F81EA030404F000448C
:1007E00021F0004100944FF0000B23F0004350EA49
:1007F00001045ED052EA03045BD0C3F30A54C1F390
:100800000A552C44A4F2F3340194A0FB0254C1F322
:10081000130141F48011C3F3130343F4801301FB6C
:10082000024400FB034E840A970A44EA815447EAD3
:100830008357A4FB076802958D0A05FB07854FEADD
:10084000932C04FB0C542705029D4FEA065847EAF7
:100850001637B5EB08056EEB070C870E920E47EACC
:10086000811742EA8312A7FB0201B6EB0B0164EB8E
:1008700000042B0D43EA0C335E1844EB1C50DA469F
:100880005146E7FB0201C5F313044FEA0B3343EA79
:1008900014534FEA0432019C43EA0603A4F10C040A
:1008A0000294009CCDE900B400F055F903B0BDE816
:1008B000F08F00200146F9E72DE9F04D81EA0304AD
:1008C00004F0004B21F0004514464FF0000A23F0DD
:1008D000004150EA050220D054EA01021DD0C5F3C0
:1008E0000A570246C5F31303C1F31300C1F30A56B6
:1008F00040F4801543F48013A7EB0608101BD6467E
:1009000008F2FD3873EB050002D308F1010801E09D
:1009100092185B41B8F1000F03DA00200146BDE8F0
:10092000F08D00204FF48011064684460EE0171B20
:1009300073EB050705D3121B63EB050306434CEA73
:10094000010C49084FEA300092185B4150EA010758
:10095000EDD152EA030012D082EA040083EA0501D5
:10096000084305D0101BAB4106D20122002306E04C
:1009700000224FF0004302E06FF0010253101AEB27
:1009800006004CEB085110EB0A0041EB0B01BDE8EF
:10099000F04D00F0D1B8000030B5041E71F1000434
:1009A00004DB4FF00044404264EB0101141E73F17C
:1009B000000405DB1C464FF00043524263EB040386
:1009C000994208BF904230BD30B50B460146002029
:1009D0002022012409E021FA02F59D4205D303FA01
:1009E00002F5491B04FA02F52844151EA2F1010282
:1009F000F1DC30BD2DE9F05F0546002092469B46B4
:100A000088460646814640241BE028464146474624
:100A1000224600F020F853465A46C01A914110D39E
:100A2000114618462246FFF749FD2D1A67EB0108CB
:100A30004F46224601200021FFF740FD17EB000939
:100A40004E41201EA4F10104DFDC484631462A460F
:100A50004346BDE8F09F202A04DB203A21FA02F049
:100A60000021704721FA02F3D040C2F120029140E8
:100A7000084319467047202A06DBCB17203A41FA73
:100A800002F043EAE07306E041FA02F3D040C2F11B
:100A9000200291400843194670472DE9F05F8246D5
:100AA0000078002715468B460AF10104B946302824
:100AB00001D09DB113E014F8010B0127782803D071
:100AC000582801D045B10AE00DB1102D07D10027FB
:100AD000102514F8010B02E0082500E00A25002685
:100AE000B0460EE005FB080005FB06F1012701EB0F
:100AF00010461FFA80F8B6F5803F00D3B94614F8C7
:100B0000010B294600F0A0F80028EBDABBF1000F3A
:100B100005D00FB1641E00E05446CBF80040B9F197
:100B2000000F06D001F044F802210160C81EBDE8A4
:100B3000F09F48EA0640FAE710B5141E73F100046E
:100B400008DA401C41F1000192185B411A4301D1BF
:100B500020F0010010BD2DE9F04D92469B4611B1E9
:100B6000B1FA81F202E0B0FA80F220329046FFF74B
:100B7000A5FC04460F4640EA0A0041EA0B01534631
:100B80005A46084313D0114653EA010019D0C8F160
:100B900040025046FFF75FFF05460E465046594655
:100BA0004246FFF78BFC084305D0012004E02046B5
:100BB0003946BDE8F08D0020054346EAE0762C4337
:100BC00037430A986305E40AA0EB08000022FD0AF7
:100BD00044EA47540A3002D500200146E9E70105FE
:100BE00010196941DDE9084500196941BDE8F04D7A
:100BF000A2E7C1F30A52C1F3130140F2FF3341F4FB
:100C000080119A4202DA00200146704740F23343D5
:100C10009A42A2F2334202DC5242FFF71CBFFFF7B6
:100C20004DBC0000064C074D06E0E06840F00103B3
:100C300094E8070098471034AC42F6D3FFF7E4FA83
:100C40006CCC0D008CCC0D003A2800D2303820F04E
:100C50002002412A01D3A2F13700884201D34FF08C
:100C6000FF30704770B58D1810F8014B14F0030277
:100C700001D110F8012B231106D110F8013B03E03C
:100C800010F8016B01F8016B521EF9D1ABB110F8ED
:100C9000012B04F00C048A1A0C2C03D0A2EB841252
:100CA0009B1C08E010F8014BA2EB0422F8E712F8B5
:100CB000014B01F8014B5B1EF9D5A942D4D30020AA
:100CC00070BD000073B5164D064684B02888A0F5A7
:100CD0007F41FF3922D0002000900190A988ADF813
:100CE000040005A8ADF80010CDE9020601218DF839
:100CF00002100C480C49BDF81420401AC10803200A
:100D000000EB0140044609A109F02CFE2046082210
:100D1000314609F0CFFD28886946AEDF06B070BDC8
:100D2000C4A002205CCD0D009CCC0D000D0A2061FA
:100D30006C697061792073656E643D2564200000E4
:100D40000022027010460A60704700B589B00FF0AB
:100D5000A1FC014668460FF0B5FCBDF8000002900A
:100D60009DF8020003909DF8030004909DF8040094
:100D700005909DF8050006909DF80600079002A8D2
:100D800010F024FF09B000BD0FB44FF4807110B50E
:100D900004AB0648039A00F0F9FE0246034900201E
:100DA00008F0B8F810BC5DF814FB0000D2A00220D7
:100DB00010B5C0B201F010FE002010BD13460A4667
:100DC000194601F05DBE93B20A46194601F0BABE5B
:100DD0001CB54FF40041002009F040FE18B112A2EA
:100DE0008C21FFF767FA09F03DFC08F05FFD18B1B0
:100DF0000DA2B721FFF75EFA11490120CDE90001EC
:100E0000020200230FA1114811F01AF9012804D0A1
:100E100005A2D4210420FFF74DFA0D48016841F0E6
:100E2000040101601CBD00002E2E5C2E2E5C666F3E
:100E30006E745F6D61696E5C696E69742E6300002B
:100E4000C05F00204C4F474745520000D58F00003F
:100E500010ED00E02DE9F04F00268DB0DFF8A08105
:100E6000B14604964FF4807501243746059628460E
:100E700009F03AFB38B1D8F80403204203D02846E1
:100E800009F028FB26432D1D64007F1CADB2082FFE
:100E9000EDD34FF4BE74204609F026FB48B120463E
:100EA00009F018FB46F0004604AA0221002009F0D0
:100EB000FBFA544C16F0FF0F15D0012700253742DE
:100EC0000DD008EB8501D1F81005D1F81015C0F34D
:100ED000052054F82520C1F3014102B190477F005D
:100EE0006D1C082DEBD3002E7EDA0020CDF8289063
:100EF000411E0DF1100B07AACDF82C9042F82010DE
:100F0000401C91460228F9D300252E46A11911F85C
:100F1000607F91F9000027F0C008401C40D007A96D
:100F2000404608F068FB40B34FEA971A404603F08A
:100F300049FF54F820701FB1BAF1030F03D006E047
:100F4000BAF1030F2CD10AA9404608F05CFB02A8B5
:100F5000CDF8088009F0A6F9029900EB8100D0F8DD
:100F6000000704A9C0F301400290404608F043FB8B
:100F70000028029802D0022802D011E003280FD1E5
:100F8000BAF1030F08D10298022833D0022140465B
:100F900009F03EF96D1CEDB217B151464046B84715
:100FA000761C042EB2D3002D21D001AA02210020EC
:100FB00009F07AFA00205A460DF1040152F8206037
:100FC00051F82030B34217D000200AAE4FEA09038F
:100FD00051F8207042F8207056F8207043F82070C5
:100FE000401C0228F4D300E001E0002D8CD10DB0AC
:100FF000BDE8F08F0321CAE7401C0228DED3F6E7E4
:101000000060004038760020BFF34F8F054801682C
:10101000054A01F4E06111430160BFF34F8F00BF47
:10102000FDE700000CED00E00400FA0570B54FF498
:101030008076304608F000FC114CB50560B13046B2
:1010400008F001FC0120C5F80803607920B90120EF
:1010500060712168002088474FF48276304608F09E
:10106000EBFB00280AD0304608F0EDFB0220C5F863
:1010700008032168BDE870400120084770BD0000EA
:10108000F05800200149024807F03DBA3C700020AA
:1010900000C001403EB5124CE07800281ED1114836
:1010A0001149401AC008032101EB00400FA109F0CB
:1010B00055FC0120E0700E4807C88DE807000022AB
:1010C000694604F118000AF097F918B109A2AB219A
:1010D000FFF7F0F8A07840F00100A0703EBD0000DE
:1010E000DC5900205CCD0D009CCC0D0050574D000C
:1010F000782901002E2E5C2E2E5C2E2E5C2E2E5C6E
:101100002E2E5C6465766963655C6C636D5C4C4334
:101110004D5F5354373330315C5354373330312EB5
:10112000630000004FF4FA6011FB00F06421B0FB93
:10113000F1F00549C0F5FA60022308800248012257
:10114000024910300AF0DCB9E45900206829010096
:10115000012101480AF00CBAF45900202DE9F041B0
:10116000164E4FF4A071304609F0D4FD0025EFF380
:101170001184402080F31188D6F804758100304630
:1011800009F0C8FD10F096FF381A20F07F46012EB6
:1011900007D910F081FF022803D0002610F096FF37
:1011A0000543761EFAD225B105494FF080500860FC
:1011B00040BFE0B280F31188BDE8F081001001402B
:1011C00004ED00E004220021014807F027B90000E7
:1011D000004002402DE9FE434FF48278404609F07A
:1011E000ADFD4C4F00254C4C012600B3404609F0A4
:1011F000ADFD94F82E0010B194F82F10D1B18DF8F8
:101200000050616801912189ADF80810E26832B19F
:10121000218B618362602181E56010B102E0257459
:1012200000E03E6021686846884784F82F5094F8B3
:101230002E0060B34FF48077384609F07FFD30B35D
:10124000384609F083FD628B94F82D108A420AD942
:10125000A2EB010080B260832289A2EB00006268E9
:1012600002EB400005E007D1E06828B184F82F6068
:10127000658309F05BFD04E08A4202D184F82F60A7
:101280006583404609F062FD2248001D06604FF468
:101290008877384609F052FD48B1384609F056FDC6
:1012A000257402208DF800002168684688474FF4B5
:1012B0008A77384609F042FD28B1384609F046FDE4
:1012C0002574BDE8FE834FF000484FF48C796769C0
:1012D0001DE000BFB7FA87F028FA00F109EB80059E
:1012E0008F43284609F02AFD88B1284609F02EFDD3
:1012F000A5F58C75E8088DF8040045F38000401CC6
:101300008DF800608DF80500216868468847002F39
:10131000E0D1D6E7007000400C77002000F082BAE0
:10132000F8B50D4B0646144618780D4608B900F07E
:1013300079FA00208DF80000684601F005FF22468A
:101340002946304600F00AF804469DF8000001F0F6
:101350001FFF2046F8BD0000E49A002070B50E463D
:10136000144900EB400001EBC0051446E86A18354B
:1013700020B101280FD0022805D113E0284600F043
:1013800085FAA04201D2002411E0224631462846C7
:1013900000F0A2FB0BE0284600F078FAA042F4D25D
:1013A0000446F2E73146284600F069FB0446204631
:1013B00070BD0000E49A00200FB408B504A90091A4
:1013C0006A46039900F003F801B05DF814FB2DE9BB
:1013D000F04198B0064607A8029040200025CDE9CC
:1013E0000305CDE9055690460C4614F8011B00296B
:1013F00073D0252908D002A800F022FB0598002808
:10140000F3DA18B0BDE8F081002001212278232A08
:101410001ED02B2A19D02D2A02D0302A08D102E062
:1014200040F0010001E040F00200641C0029EDD111
:1014300000222178A1F130030A2B0CD202EB8202A8
:1014400001EB4202303A641CF3E740F00400ECE7A1
:1014500040F00800E9E70023CFB22E2F0BD114F89B
:10146000011FA1F130070A2F05D203EB830301EB23
:101470004303303BF3E76C290DD068290BD070296A
:1014800054D00BDC252916D0582931D063290CD033
:10149000642913D114E014F8011FECE7732934D048
:1014A00075291BD0782909D122E0D8F80000011D48
:1014B000C8F80010017802A800F0C2FA641C9DE789
:1014C000D8F800100F1DC8F800700968CDE9002099
:1014D0000A2202A800F0E6F9F0E733E0D8F800109D
:1014E0000F1DC8F800700968CDE900200A2208E045
:1014F000D8F800100F1DC8F800700968CDE9002069
:10150000102202A800F032FAD8E7D8F80000011D36
:10151000C8F80010076817F8011B0029CED002A8F0
:1015200000F08EFA05980028F5DAC7E7D8F8000031
:10153000011DC8F8001001680820CDE90005034628
:101540001022DEE7059800287FF75BAF049820B1F2
:10155000024607A93046FFF7E3FEDDE90410084420
:1015600005904EE70149024806F0A8BFB4BF02202B
:101570000030004002494FF040200FF031BB000026
:101580003C7700200149024806F098BFD8BF0220EE
:1015900000F00240074810B5006810F0D3FE0128A3
:1015A00007D105490007086040BFBFF34F8FBFF365
:1015B0006F8F10BDC459002004ED00E04FF0805043
:1015C00000228300D0F83011C3F80C21C3F8102199
:1015D0004B4B1A604B4A12684B4B1A60494A121D1A
:1015E00012681B1D1A60474A083212681B1D1A60D8
:1015F000444A0C3212681B1D1A60424A10321268AB
:101600001B1D1A603F4A143212681B1D1A603D4AA6
:10161000183212683C4B20331A603A4A1C32126866
:101620001B1D1A60374A203212681B1D1A60354A8A
:10163000243212681B1D1A60324A283212681B1DA0
:101640001A60304A2C3212681B1D1A602D4A303243
:1016500012682D4B40331A602A4A343212681B1D1F
:101660001A60284A383212681B1D1A60254A3C321B
:1016700012681B1D1A60234A403212681B1D1A6033
:10168000082902D1D0F8342112B1082904D006E08B
:101690001F4A1E49116005E0D0F8342112B1082913
:1016A00004D006E01B4AFB21116005E0D0F834218C
:1016B00012B1082908D00EE090F8582216480168A7
:1016C00062F30301016002E0D0F834211AB9134932
:1016D0004FF40070086012480168C90702D06FF02B
:1016E000010101600F48016841F470010160BFF31E
:1016F0004F8FBFF36F8F0D490B4808607047000094
:10170000380500400404001020C500404881030053
:101710008C56004018F50040E40E00404096024010
:101720000004004088ED00E00090D0039870002095
:1017300004220249024806F04DBE0000F476002063
:101740000090004004220249024806F043BE000017
:101750000077002000A00040044802684168521C45
:1017600041F100010260416070470000305A0020E2
:101770000148006800470000F858002010B501F04B
:1017800059FC002805D0BDE81040024AC321FEF7ED
:1017900091BD10BD280E000010B503F059F803F0FC
:1017A00079FF00F03DF8BDE8104004F05BB80000A0
:1017B00001490120087070477C5F0020014900202A
:1017C000087070477C5F002008B507F041F905F00C
:1017D000B7FA06F0A9F806F0BDF8044878210090A1
:1017E0001A231022084606F099F808BDC45F0020AD
:1017F00038B50848D0F804034FF0000410F0010F8A
:1018000006D005484068804704480460006800909E
:1018100038BD0000000001400859002000010140CF
:101820000AF096BC10B5124C02202061606111A034
:10183000A06104F17800E0614FF4007020620020A4
:10184000A06260620BA1A164E06204F51E71E16414
:101850001021A065C4E91410E06509A1E01DFEF7A0
:10186000A1FE08A12046FEF79DFE2020A07110BD1C
:10187000E49A00205465726D696E616C000000008E
:101880005254540053454747455200000269C1680D
:101890008A4203D88068401A104400E0501A401E63
:1018A000704700002DE9FC5F0E008146DDE90C4722
:1018B000C6F1000098469346824600D408460125AA
:1018C00003E000BF90FBFBF06D1C5845FADAA84519
:1018D00000D9454624B1002E01DB780700D5641EEF
:1018E000B80702D5B8F1000F0FD0F8070DD164B1D9
:1018F000A5420AD220214846641E00F0A1F8D9F87A
:101900000C000028F3DABDE8FC9FD9F80C00002891
:10191000F9DB002E02DA56462D2102E0780707D5C2
:101920002B21484600F08CF8D9F80C000028EADB9F
:1019300007F0030002280FD1B8F1000F0CD15CB101
:10194000A54209D230214846641E00F079F8D9F842
:101950000C000028F3DAD6E7CDE9004743465A46A3
:101960003146484600F002F8CDE700002DE9F84F77
:101970008246DDE90A4B0126984691460D46084607
:10198000374602E0B0FBF9F07F1C4845FAD2B84573
:1019900000D947465FEACB7017D1B4B15FEA8B70CC
:1019A00002D5B8F1000F02D0202000900BE03020CB
:1019B000FBE75046641E009900F042F8DAF80C008C
:1019C000002838DB0CB1A742F3D3DAF80C0000286A
:1019D00031DB00BFB8F1010F02D9A8F1010803E023
:1019E000B5FBF6F0484502D306FB09F6F2E7DFF84F
:1019F0004C8000BFB5FBF6F000FB165518F8001040
:101A0000504600F01DF8DAF80C00002803DBB6FBA6
:101A1000F9F6002EEED15FEACB700CD0002C0AD084
:101A2000A74208D220215046641E00F009F8DAF8D7
:101A30000C000028F2DABDE8F88F0000042801004D
:101A400010B50446D4E90130421C934205D3236803
:101A50001954A260E068401CE060D4E901028242AF
:101A600009D121682069FFF75BFCA168884203D097
:101A70004FF0FF30E06010BD0020A06010BD2DE9E8
:101A8000F047C4681746894606464FF0000830699B
:101A9000A04201D9051B02E0B168201A0D1AB068F6
:101AA0006D1E001BA84200D80546BD4200D33D462E
:101AB00070682A4620444946FEF714FDB0687F1B33
:101AC0002C44A844A944A04200D10024F460002F73
:101AD000DDD14046BDE8F0872DE9F0410446884657
:101AE000D4E90207C51BE168606816460844B542A0
:101AF00006D94146FEF7F6FCB819E060BDE8F08172
:101B00002A464146FEF7EEFC761B08EB05013246FD
:101B10006068FEF7E7FCE660F0E700000FB4054BF5
:101B200010B503A9044A029800F0BEF910BC5DF894
:101B300014FB0000A56F0000AC7000200FB41CB5B2
:101B40000A46521ECDE9000207A9054B6A460698CF
:101B500000F0AAF9009A002111701CBC5DF814FB7A
:101B6000D72500000FB4084B10B504A902AA0398AA
:101B700000F09AF9044602A9002000F037FD204643
:101B800010BC5DF814FB0000ED2500007CB5491E7B
:101B90001C461546CDE90001044B6A4621462846FD
:101BA00000F082F9009A002111707CBDD725000059
:101BB00000487047B470002002E008C8121F08C136
:101BC000002AFAD170477047002001E001C1121FBE
:101BD000002AFBD1704700000121202803DA814050
:101BE0000548014003E0402802DA2038814009B16D
:101BF0000120704700207047FC06FFBD2DE9F84327
:101C0000804643F2020669B969460BF0E7FEB0422E
:101C100004D018B1284A8D21FEF74CFB9DF8000036
:101C2000800746D4002140460BF014FF050040D049
:101C3000112D3ED021482249401AC708022000EB4E
:101C400007440D2D0AD00B2D1DD0B5421FD11D49C3
:101C500020464246BDE8F84308F084BE204642468E
:101C6000194908F07FFE1321404676DF002820D076
:101C700009F0CAF9024601B020464346BDE8F043E8
:101C800012A108F076BE204642461E49E2E72846E9
:101C900009F0BAF90246012000EB074043461AA1B9
:101CA00008F067FE2846BDE8F843034ABC21FEF76A
:101CB00001BBBDE8F8830000A8B60D00D4CC0D0030
:101CC0009CCC0D00D8B50D0064B50D0073645F6247
:101CD0006C655F6761705F646973636F6E6E656387
:101CE0007428292072657475726E656420257320CE
:101CF0006F6E20636F6E6E5F68616E646C65202529
:101D0000642E000024B60D00417373657274696E11
:101D1000672E20706D5F636F6E6E5F7365637572A3
:101D20006528292072657475726E6564202573209C
:101D30006F6E20636F6E6E5F68616E646C652025E8
:101D4000642E00002DE9FF5FDDE90220010DDDF8C2
:101D500038B0024318D044F61050A1F2FF3141438D
:101D60000D140F98012820D0A5EB0B00401C5FEA52
:101D7000000A4FF00004474EDFF81C91A046504681
:101D800016D5CAF1000728E00F98012443A20128C4
:101D900008D0002100980F9BC0E90021C0E9024350
:101DA000BDE8FF9F6FEA0B01F4E7CBF10000DEE72F
:101DB000074612E0F80707D0224633464046494618
:101DC000FEF708FD804689462246334610461946EE
:101DD000FEF700FD04460E467F10002FEAD1DDE934
:101DE0000201BAF1000F42464B4602DAFEF7F2FC5E
:101DF00001E0FEF761FD04460E460022284BFEF787
:101E0000CBFD03D84FF0FF30014607E00022254B01
:101E100020463146FEF737FCFEF7EBFE102409E0C2
:101E2000002C0ADB0A220023FEF7E4FD019B30327E
:101E30001A55641E50EA0102F2D1641C019AC4F1E1
:101E4000110314440F9A012A03D0012208430DD133
:101E50000AE0084304D000204FF0110B0F9080E7F8
:101E6000A3EB0B056D1E0DE05B4504DD4FF000029A
:101E700005F1010504E003DA4FF00002A5F10105C8
:101E8000002AECD000980F99C0E90231C0E9004562
:101E900086E70000000024400000F03F3000000012
:101EA0000000F0430000E03F2DE9FF4F95B09B4656
:101EB0008946064600250FE2252877D100242746CB
:101EC000F84A0121059400E0044316F8013F203B45
:101ED00001FA03F01042F7D130782A2811D06FF0C0
:101EE0002F033078A0F13002092A16D8059A44F061
:101EF000020402EB820203EB42021044761C0590BE
:101F0000EFE759F8042B0592002A03DA504244F413
:101F10000054059044F00204761C30782E2816D127
:101F200016F8010F44F004042A280DD06FF02F0298
:101F30003078A0F13003092B09D807EB870302EBB7
:101F40004303C718761CF3E759F8047B761C3078F6
:101F50006C280FD006DC4C2817D068280DD06A28D2
:101F600014D104E0742810D07A280FD10DE044F485
:101F700000140AE044F4801401E044F44014727840
:101F8000824202D104F58014761C761C30786628D3
:101F90000BD013DC582877D009DC002875D04528F1
:101FA000F6D04628F4D047281AD19DE118E06328DE
:101FB00035D0642879D0652812D195E1702873D086
:101FC00008DC6728F1D069286FD06E280DD06F2803
:101FD00006D1B5E073282CD0752875D0782874D038
:101FE0005A46179990476D1C75E1C4F302500228B8
:101FF00009D003280DD0D9F8001004280DD00D60A9
:1020000009F1040967E1D9F80010EA17C1E90052A3
:10201000F6E7D9F800100D80F2E70D70F0E719F837
:10202000041B8DF8001000208DF80100EA46012005
:1020300003E059F804AB4FF0FF3061074FF00001A7
:1020400002D40DE008F101018846B9420FDA80455B
:10205000F8DB1AF808100029F4D108E008F10101B2
:1020600088468142FADB1AF808100029F6D1059853
:102070005B46A0EB080721463846179A00F094FA11
:10208000284400EB080507E04DE029E10DE01AF8CF
:10209000010B5A4617999047B8F10108F7D25B46F1
:1020A00021463846179A13E142E00A220092C4F30F
:1020B00002524FF0000A022A08D059F804CB032A32
:1020C0004FEAEC710AD00DE029E02AE009F107019E
:1020D00021F00702F2E802C1914609E00FFA8CFCF8
:1020E0004FEAEC71042A03D14FFA8CFC4FEAEC71F1
:1020F000002907DA0A460021DCF1000C61EB02013D
:102100002D2202E0220504D52B228DF80420012285
:1021100003E0E20701D02022F7E7904659E00A21C8
:1021200002E010220DE010214FF0000A00910BE0B8
:1021300010224FF0000A44F004040827009203E044
:1021400008224FF0000A0092C4F30252022A05D07E
:1021500059F804CB0021032A08D009E009F107014E
:1021600021F00702F2E802C1914605E01FFA8CFC5B
:10217000042A01D10CF0FF0C4FF00008220728D5EB
:10218000702806D0009B83F0100353EA0A0305D0A1
:102190000EE040228DF80420012208E05CEA0102F2
:1021A00006D030228DF804208DF8050002229046DA
:1021B000009B83F0080353EA0A030AD15CEA010298
:1021C00001D1620705D530228DF804204FF00108B7
:1021D0007F1E582804D034A003900EA802900DE072
:1021E00036A0F9E753466046009AFEF703FC8446A2
:1021F0000398825C0298401E029002705CEA010023
:10220000F0D1029806A9081A00F1200A600702D549
:1022100024F4803400E00127574502DDA7EB0A00D3
:1022200000E0002000EB0A01009005984144401AAC
:102230000590E00306D45B462146179A059800F006
:10224000B3F90544002706E001A85A46C05D179976
:1022500090476D1C7F1C4745F6DBE0030CD55B46C1
:102260002146179A059800F09FF9054404E03020B4
:102270005A46179990476D1C0099481E00900029F6
:10228000F5DC08E0029802995A460078491C029150
:10229000179990476D1CBAF10001AAF1010AF1DC0F
:1022A00065E100000928010030313233343536371A
:1022B0003839616263646566000000003031323392
:1022C0003435363738394142434445460000000032
:1022D00000F058F90544761C307800287FF4ECAD06
:1022E00019B02846BDE8F08F620700D4062709F12F
:1022F000070222F0070CFCE80223E14603F0004845
:102300005FEA080C02D00FF2702C0DE05FEA045C6B
:1023100002D50FF2682C07E05FEAC47C02D00FF20E
:10232000602C01E0AFF2700C4FF0FF3823F0004357
:10233000CDF850C065280CD006DC452809D04628C9
:102340001DD047283DD13DE0662818D067287ED1B2
:1023500038E00021112F01DB112000E0781CCDE9CD
:10236000000106A90EA8FFF7EDFCDDE90F010E9AAA
:1023700003910021009207F1010A04914DE04FF012
:1023800000400097CDE9011006A90EA8FFF7DAFC7E
:10239000DDE90F0203920E9B11990022DDF80CA0DB
:1023A0000093049211B9791C00EB010AB7EB0A0003
:1023B00004D4C0F1FF3007F1010A0490AAEB070032
:1023C000019044E0012F00DA01270021112F01DDE7
:1023D000112000E03846CDE9000106A90EA8FFF75C
:1023E000B1FCDDE90F010E9A0391002104910092E6
:1023F000BA4621070CD40399514500DA8A46BAF14E
:10240000010F05DD009AAAF10101515C302908D0C5
:10241000B84202DA10F1040F06DA0121CDE9011009
:1024200015E0AAF10101E9E7002805DC049901445F
:102430000491AAEB000102E0411C514500DD8A46EF
:102440000499401A401C01904FF000400290200770
:1024500004D40198504501DBCDF8048000208DF8AC
:102460004F0002980DF14F07B0F1004F25D02B20FF
:102470000E9002984FF0020800280CDA40420290B9
:102480002D200E9007E00A210298FEF79DFA3031C8
:10249000029007F8011DB8F10001A8F10108F2DC73
:1024A00002980028EFD1791E0E980870307800F05D
:1024B000200040F0450007F8020D12A8C01B00F1F3
:1024C00007081498007800B1012000EB0A01019878
:1024D00001EBE07105984144401A401E0590E0036D
:1024E00006D45B462146179A059800F05DF805442E
:1024F0001498007818B15A46179990476D1CE0035C
:1025000024D55B462146179A059800F04DF80544FE
:102510001CE00498002807DBDDE90301884203DDA5
:102520000098405C179901E0179930205A4690476F
:10253000049805F10105401C04900198401E01908B
:1025400004D12E205A46179990476D1CBAF100010C
:10255000AAF1010ADDDC05E017F8010B5A461799CC
:1025600090476D1CB8F10001A8F10108F4DC5B464E
:102570002146179A0598ABE62D0000002B000000BD
:10258000200000002DE9F041044600251E461746B4
:10259000880404D405E039462020B0476D1C641E31
:1025A000F9D52846BDE8F0812DE9F0410446002523
:1025B0001E469046C80301D5302700E02027880436
:1025C00004D505E041463846B0476D1C641EF9D578
:1025D0002846BDE8F0814A68002A06D00A68531CE4
:1025E0000B6010704868401E486070470A68531CB2
:1025F0000B601070704710B560B159B102780B785C
:102600005208B2EB530F05D10622401C491CFDF7BE
:10261000BCFF08B1002010BD012010BD800701D013
:102620000020704701207047C3688B4206D81144D0
:102630000069491E814201D801207047002070477F
:1026400010B501220221002002F0C8FA08B10728C3
:1026500010D107220221012002F0C0FA08B1072898
:1026600008D100210A22084602F0B8FA08B107286A
:1026700000D1002010BD70B58CB015460E46002369
:102680006C46C3F10F01415CE1545B1C102BF8D385
:102690000D2104F11000FDF74CFF0020C0F10F02E6
:1026A000315C2244401C11740328F7D3684646DF8E
:1026B0000020C0F10F01214491F820102954401C42
:1026C0000328F6D30CB070BD7CB5FF2401258DF82E
:1026D000004001AA694608200195FEF76FFB08B18A
:1026E000FF207CBD9DF80000A5280DD104F09AFEC6
:1026F00040B2EE2658B101281CD000220FA10220C2
:10270000FEF742FB8DF800609DF800007CBD0022C2
:1027100015490220FEF738FB00F04AF80E2803D0D6
:1027200028B18DF80040EFE7002210A1E7E78DF80F
:102730000050E9E7A5208DF80000E5E75B414C4932
:102740005041595D5B4552524F5D5345206765745A
:102750005F62696E645F7374617475732065727211
:102760006F72210A0000000038CA0D005B414C491D
:102770005041595D5B4552524F5D53452065727221
:102780006F72207768656E20756E62696E642E0ABE
:10279000000000000BF0DCBF08B58DF80000082039
:1027A000FEF706FB012269460820FEF70CFB08BD78
:1027B00010B50CF091F8020008D00DA10220FEF730
:1027C000E3FAEE20FFF7E8FF0E2010BD0720FEF72A
:1027D000EFFA040006D0024610A10220FEF7D4FA58
:1027E000204610BD0120FFF7D7FF002010BD0000DC
:1027F0005B414C495041595D5B4552524F5D72659A
:102800007365745F7365206572726F7221457272B1
:102810006F72204E4F2E3A25642E0A005B414C49C0
:102820005041595D5B4552524F5D556E62696E6411
:10283000696E67206572726F72214572726F7220C5
:102840004E4F2E3A25642E0A0000000010B54FF4BA
:1028500080610D48FDF76DFE0C4C4FF400710C4883
:10286000A160FDF766FE4FF0FF30E0600020E080E1
:102870002070A0706070E070207105481921BDE8DB
:1028800010401938FDF755BE08C902209C70002081
:1028900021CD0220D0F8D80008B1002070470120D7
:1028A000704700000149C97801F0BEBAB85800204D
:1028B000F8B50446002015460E46009079E000BFAA
:1028C00094F8DC00092863D2DFE800F0050B152737
:1028D0002D343A4068006A463146204602F098FCA2
:1028E00059E098191B1DC178006861F31F60C4F896
:1028F000080100930FE0581C0090D4F8E82004F57C
:102900008671F05C5054D4F8E81020B1491C0220C4
:10291000C4F8E8103FE003203DE06A463146204617
:1029200000F03AFD37E0581C0090F05CA4F8FC0081
:10293000052030E06A463146204600F0A1FD2AE03D
:102940006A463146204600F0B5FC24E0B4F8E400C5
:10295000B4F8FC10884204D2401CA4F8E4005B1CCC
:102960000093B4F8E410B4F8FC00814212D1204680
:10297000D0E94023D4F8FC1000F078FD18B12168AC
:1029800004F1EC0088472046FFF784FF0028C2D0FE
:10299000082000E0072084F8DC000AE00748084926
:1029A000401AC008042101EB004006A107F0D6FF41
:1029B0000095009BAB4283D3F8BD00005CCD0D00B9
:1029C0009CCC0D0050617273652073746174653A1C
:1029D00020446F6E652000002DE9F041244C05462F
:1029E000244E2070C0074FF6FF7709D0A6F8D070AC
:1029F000282106F1D200FDF79CFD25F00100207092
:102A000020788046800708D5A6F8607132211A48E0
:102A1000FDF78FFD28F002002070207880464007E7
:102A200009D51548A6F8947132213430FDF781FD9F
:102A300028F00400207020784FF0000102070AD52A
:102A40000D4AA6F8C8711E3220F0080042F84A1F4D
:102A5000516011812070FF2D00D131604FF4EA7276
:102A60000649044802F086FE0020BDE8F08100001F
:102A7000605A00208C9E0220EE9F02200090D10020
:102A80002DE9F04115460E46074600244FF4EA7240
:102A900029492A4802F026FE2848294A016891421D
:102AA00039D1012F06D0022F13D0042F20D0082FA8
:102AB0003ED12CE0B0F8D040282C2CD8002105E0E5
:102AC000421892F8D2206A54491C89B2A142F7D325
:102AD0002EE0B0F86041322C1DD8002105E04218EC
:102AE00092F862216A54491C89B2A142F7D31FE0CF
:102AF000B0F89441322C0ED8002105E0421892F82B
:102B000096216A54491C89B2A142F7D310E0B0F86B
:102B1000C8410A2C02D90420BDE8F081002105E05B
:102B2000421892F8CA216A54491C89B2A142F7D3CB
:102B300000203460F0E700000090D1008C9E02205D
:102B40007755BBAA70B5244B224C01281C6006D0D7
:102B5000022811D004281CD0082833D126E0A3F87D
:102B6000D010002005E0145C1D18401C85F8D240F0
:102B7000C0B28842F7D325E0A3F86011002005E039
:102B8000145C1D18401C85F86241C0B28842F7D31E
:102B900018E0A3F89411002005E0145C1D18401CF7
:102BA00085F89641C0B28842F7D30BE0A3F8C8116C
:102BB000002005E0145C1D18401C85F8CA41C0B215
:102BC0008842F7D34FF4EA720449034802F0D2FD79
:102BD000002070BD7755BBAA8C9E02200090D100CA
:102BE000C261816104F0C0BE0EB515460E46804636
:102BF00072B607F06BFF00BF07F042FD0028FBD163
:102C000028482949401AC708012000EB074004461C
:102C100026A107F0A3FEB8F1010F2AD06FF480516E
:102C200018EB010028D0B0F5405F2AD06FF4405176
:102C3000C84206D12B8820461FA16A6807F099FE7A
:102C400004E02046324623A107F08CFE07F03EFF49
:102C500007F016FD0028FBD12A463146404600F019
:102C60003DF9022000EB074020A107F077FEFEF7B8
:102C7000CBF9204621A101E0204628A107F06EFEF5
:102C8000E4E7A86808F0C0F90346D5E90001CDE9FA
:102C90000010029620462AA1AA6807F07BFE204673
:102CA00031A1EBE75CCD0D009CCC0D004661746159
:102CB0006C206572726F7200415353455254494FF4
:102CC0004E204641494C45442061742025733A25E5
:102CD00075000000554E4B4E4F574E204641554C07
:102CE000542061742030782530385800537973743B
:102CF000656D20726573657400000000534F465483
:102D00004445564943453A20415353455254494F4F
:102D10004E204641494C454400000000534F465464
:102D20004445564943453A20494E56414C49442072
:102D30004D454D4F525920414343455353000000E8
:102D40004552524F52202575205B25735D206174DA
:102D50002025733A25750D0A50432061743A2030BE
:102D60007825303878000000456E64206F66206555
:102D700072726F72207265706F7274000D46144625
:102D8000014644220A48FDF7ADFB0948A200294646
:102D90005030FDF7A7FB064C0220103C20720DF0CE
:102DA00079FC6060204600F085F8FEF72DF9000000
:102DB000949C022010B50446002003F0DDFD20465F
:102DC00003F0B2FDBDE81040012003F0D5BD03F0D3
:102DD00001BE70B5064614460D46002003F0CCFD3A
:102DE00022462946304603F0F5FDBDE8704001203B
:102DF00003F0C2BD70B5054616460C46002003F030
:102E0000BBFD32462146284603F05CFE012003F05C
:102E1000B3FD304670BD00002DE9F04782461446F0
:102E20000D4641F0FF06002003F0A6FD002710E04C
:102E3000E819010B804600058946000D08D10846B7
:102E400003F072FD43464A4616A10020FEF7B4FA8D
:102E50007F1CA742ECD3C5F18070A04200D204468B
:102E6000A046002715E000BF05EB0800B04202D9DC
:102E7000701B00F101080AEB07004246294603F0E7
:102E800075FE00280BD04744751CA4EB070806F517
:102E90008076A742E8D3012003F06EFD3846BDE8F6
:102EA000F0870000733A25642C20616464723A252F
:102EB000640D0A0010B5084C0146A022201DFDF744
:102EC00011FB0020207160710920A0714FF0553076
:102ED0002060C4F8AC0010BD00FC032070B50E46A5
:102EE00000216FF48043C3181DD0012B16D048F683
:102EF00088030F4CE360C4E9050629B1842204F17C
:102F00001C00FDF7EFFA2561012020720DF0C2FBD5
:102F10006060BDE870400648FFF7CCBF158849F6F1
:102F200099135168E5E7D2E901131568E1E700005C
:102F3000849C022010B502280ED108480849401A86
:102F4000C108032000EB0140044606A107F006FD7E
:102F5000204610A107F002FD012010BD5CCD0D0040
:102F60009CCC0D00506F776572206D616E61676556
:102F70006D656E742077616E747320746F20726556
:102F800073657420746F20444655206D6F64652E00
:102F900000000000506F776572206D616E6167659B
:102FA0006D656E7420616C6C6F77656420746F2042
:102FB000726573657420746F20444655206D6F648C
:102FC000652E000010B50BF08BF9017B002905D0B0
:102FD00001688268BDE810400846104710BD000037
:102FE00038B5046800251AB110B1207B20B901E082
:102FF000072038BD606808B1082038BD0020206077
:10300000A060E06069B10120A26008490246009119
:1030100023464FF47A7106A00FF0C8F9606010B132
:1030200002E00020F0E70E25284638BDC52F00003D
:1030300020000000002070472DE9FC41466815463D
:103040000F46044656B1207B002809D030460FF0C9
:10305000F1F9002804D00020BDE8FC810820FBE73E
:10306000EFF30580256008B30025019501AB3A46D2
:103070000921304600950FF0B5F901282BD10FF04A
:103080001FF8024601AB0621304600950FF0AAF961
:10309000012820D1019800B311494FF080500860F9
:1030A00040BFBFF34F8FBFF36F8F16E002250023A1
:1030B0003A460421304600950FF094F901280AD1D0
:1030C0000EF0F8FF024600230121304600950FF074
:1030D00089F9012801D00420BEE701202073BAE756
:1030E00004ED00E07CB504464068002500280CD0C3
:1030F000EFF30581B9B1019501AB002208210095DC
:103100000FF070F9012817D101E008207CBD01986B
:10311000A0B10C494FF08050086040BFBFF34F8F03
:10312000BFF36F8F0AE00221002300911A460321AA
:103130000FF058F9012801D004207CBD2573002030
:103140007CBD000004ED00E030B5EFF3108172B6F5
:103150000D4A9468012324B10370002900D162B69E
:1031600030BD93604FF0E023D3F88051074C2540E9
:103170001560C3F88041D3F8844154605A17C3F8EE
:10318000842100220270E8E770770020FC06FFBD72
:103190000B498A68002A11D000280FD1EFF3108064
:1031A00072B60B684FF0E022C2F800314B68C2F8EB
:1031B000043100228A60002800D162B67047000006
:1031C0007077002070B5054608680C46411C04D095
:1031D00007F0FFF8206806F0DDFF6068411C02D0B0
:1031E000002106F0BCFF2968A069C1F82405607DB4
:1031F000227D29681043C1F86C05D4E900122868C3
:10320000C0F81425C0F80C15207D012814D1A06841
:10321000411C02D0002106F0A2FFE068411C04D04E
:1032200007F0D7F8E06806F0B5FFD4E90212286885
:10323000C0F80825C0F8101570BD70B505460868BF
:103240000C46411C04D007F0CEF8206806F0ACFF15
:103250006068411C02D0002106F08AFF2968A0693D
:10326000C1F82405607D217D2A680843C2F86C05F9
:10327000D4E900122868C0F80C15C0F81425207D88
:10328000012814D1A068411C02D0002106F070FF73
:10329000E068411C04D007F0A6F8E06806F084FF5F
:1032A000D4E902122868C0F80825C0F8101570BDCE
:1032B00005F032BD70B50446D0F8D000D4F8005106
:1032C000082303EB0515455BB4F8E40085420FD9EC
:1032D000B4F8FC50A8420BD21068451C15600A5C7B
:1032E000B4F8E400D4F80451411CA4F8E4102A54C2
:1032F000B4F8E400B4F8FC10884209D0D4F80021F6
:10330000D4F8D01003EB0212895A491E814233D1FE
:10331000FC3494E80E00FC3C204600F0A7F828B1ED
:10332000B4F8E420D4F8041100208854B4F8E40080
:10333000B4F8FC10884201D2072070BD0F48104934
:10334000401AC008042101EB00400EA107F006FB63
:10335000FC3494E80E00FC3C204600F087F818B1DD
:10336000216804F1EC0088472046FFF793FA08B182
:10337000082070BD032070BD062070BD5CCD0D001F
:103380009CCC0D0041747472696275746520666925
:103390006E6973686564210070B504461068431C4B
:1033A0001360085C1B491C4BC4F80001C91AC9080A
:1033B0000423D4F8D42003EB0145904202D32846DD
:1033C00016A10DE00C22D4F8D01002EB0010085822
:1033D000C4F804012046FFF75DFA28B1284615A17C
:1033E00007F0BCFA082070BDFC3494E80E00FC3CE9
:1033F000204600F03BF820B1D4F8D800401EC4F8B5
:10340000D800284614A1D4F8002107F0ABFA042014
:1034100070BD00005CCD0D009CCC0D004174747239
:10342000696275746520494420496E76616C6964EF
:103430002E000000416C6C207265717565737465B7
:103440006420617474726962757465732072656357
:1034500065697665642E20004174747269627574C2
:10346000652049442025692000000000D0F8D000E4
:1034700000EB02100078012800D000207047000007
:1034800010B504461068431C1360085CB4F8FC10C7
:1034900051EA0022A4F8FC204FF00000A4F8E40058
:1034A00010D054F8D00F0822216B02EB0112825A7F
:1034B00032B10C2202EB0111405808B1062010BDB8
:1034C000072010BD0E480F49401AC008042101EB27
:1034D00000400DA107F046FAFC3494E80E00FC3CD5
:1034E0002046FFF7C3FF18B1216804F1EC008847BC
:1034F0002046FFF7CFF908B1082010BD032010BD0A
:103500005CCD0D009CCC0D004174747269627574C1
:1035100065204C454E202569200000002DE9F0472C
:10352000814605884A484FF000088AB00178424633
:10353000284600F091FC99F80500400701D40021CD
:1035400076E005F58077B8B201AB0122072109F0DA
:1035500073FF04003F48404A4FF00101A0EB020016
:103560004FEAD00001EB00460AD0204607F04CFDA0
:10357000024630462B46394907F0FBF9214629E03F
:10358000284604F0C1FD4FF6FF71044688422BD156
:103590008A46029804F022FD0446504510D00146A8
:1035A000284604F091FD2846FFF77CF9E0B928464B
:1035B0000BF0D0FE2846FFF775F90028BFD013E0C6
:1035C0000AF098F80446504508D1304624A107F087
:1035D000C5F9042128460BF027FFB0E7014628462D
:1035E00004F072FD4FF00108B8B22246072109F03D
:1035F0009BFF07001BD0862F1ED007F005FD02465B
:1036000030462B462349009407F0BBF9394628463B
:103610000BF00AFF0021484609F002FEB8F1000F46
:1036200002D0204604F05AFD0AB0BDE8F08701211F
:10363000484609F0F5FDF7E71822174903A8FCF7FB
:1036400051FFADF80E5003A802F09AFDEFE700001D
:10365000B8580020DCCC0D009CCC0D0084B80D00C7
:10366000436F756C64206E6F7420616C6C6F636166
:103670007465206E657720706565725F6964206689
:103680006F7220696E636F6D696E6720626F6E6422
:103690002E00000030B90D007C2501002DE9F04717
:1036A0004FF000094FF0FF3AE0B1D9B1D2B1CBB140
:1036B000890704D000201860801EBDE8F087002133
:1036C0008C460F460C46032623E0DFF858800CF1A9
:1036D000010C18F80550FF2D04D0FD2D19D0FE2D3A
:1036E00002D003E05046E8E70025761E7F1C45EA3D
:1036F0008111042F0DD10D0C1555641C012E02D91A
:103700000D0A1555641C022E01D91155641C0021A7
:103710000F4610F80C50002DD7D103B11C6048465D
:10372000CBE7000088AD0D002DE9F84F05004FF004
:1037300000009A46009017D0B1B181460320B1FB3A
:10374000F0F300FB13132BB1B1FBF0F300FB1310EC
:10375000C0F1030901EB090806204FEAC801B1FBDB
:10376000F0FB144600263DE04FF0FF30BDE8F88F37
:10377000287833498008085C2070A8F10300B04223
:1037800039D1B9F1000F36D0B9F1010F03D0B9F139
:10379000020F19D023E028780222062101F034FD1F
:1037A000074668780422002101F02EFD3844244F9A
:1037B000C0B20222385C60706878042101F024FDF8
:1037C000385CA0703D2009E028780222062101F033
:1037D0001BFD1B49085C60703D20A070E070241D3B
:1037E000ED1CF61C4645C3D3BAF1000F01D0CAF850
:1037F00000B00098BAE728780222062101F004FD03
:10380000074668780422002101F0FEFC39180C48B4
:103810000222405C60706878042101F0F5FC0746E4
:10382000A8780622002101F0EFFC39180448405C1A
:10383000A070A87800F03F010148405CCEE700008E
:1038400048AD0D0038B5FEF73FFF044607281CD0F1
:103850000720FDF7ADFA0BF03FF8020007D018493A
:103860000220FDF791FAEE20FEF796FF09E0EE2C1C
:1038700002D00020FEF790FF432212A10520FDF7A1
:1038800083FABDE83840FEF7E1BF002000901A48F7
:103890000422C0688DF80000010A8DF80110010CA7
:1038A0008DF80210000E8DF8030069460120FDF727
:1038B0008AFAA520FEF770FF4F2210A1DEE7000074
:1038C00080CA0D005B414C495041595D5B545241E7
:1038D000435D5B25645D42696E6764696E6720665F
:1038E00061696C2120416C6C206974656D20646590
:1038F0006C65746564210A009C7000205B414C4932
:103900005041595D5B545241435D5B25645D4269A2
:103910006E6764696E67204F4B2120416C6C20708C
:10392000726F636573732066696E6973686564207E
:1039300073756363657373210A00000070B5150029
:10394000044609D00020286034B1206820B1A07955
:10395000800703D0072070BD0E2070BD084600F020
:10396000FFF9C0B2142804D02179814203D8042081
:1039700070BD052070BDE288216800FB0210286040
:10398000002070BD18B504460020ADF800001346B5
:103990006A46204600F006F8002802D0BDF8000074
:1039A000204418BD70B588B182B10024158803E0A9
:1039B000065D641C3444A4B2A54203D80619767887
:1039C0009E4201D08C42F3D38C4201D3002070BDC3
:1039D000A11C1180005D401E80B270BD70B50288D0
:1039E000102A1BD0112A20D0262A1DD1007A0C467D
:1039F000012801D0022817D1A0780521401CB0FB76
:103A0000F1F201FB1201204600F02FF800280BD044
:103A1000A16B002908D0BDE870400847C27B012A8D
:103A200002D18088A1F8480270BD0C46002184F8BC
:103A300052128088B4F848128842F5D120790028C3
:103A4000F2D10CF0BDFD18B10CF0BAFD022804D182
:103A50000121204600F009F80546002DE4D0A16BB5
:103A60000029E1D02846D6E770472DE9F05F0446EB
:103A700000780F4698B1A7700025C4F84A52A4F800
:103A80004E5284F85052A079012608B1012F09D076
:103A9000E07980B1012F05D0022F03D00BE0082080
:103AA000BDE8F09F616B21B184F85162082088471E
:103AB00001E084F8515204F24B2100200A5C0AB163
:103AC000304603E0401C0628F8D300204FF00208DF
:103AD0004FF0030B012F06D0022F0CD0032F0FD075
:103AE000042F15D110E0A17929B194F8241011B94F
:103AF00008B130460DE0E17911B108B1404608E067
:103B0000207A08B1584604E0607A08B1042000E049
:103B10002846A070616B41B1032801D0042804D16C
:103B2000607910B194F85202A0B184F8535204F1B4
:103B30003C0018210746FCF7FCFC04F12C0084F83B
:103B40003C60814609F0C6FE58B194F82C0084F818
:103B5000510008E084F8545284F8536207208847E3
:103B6000E5E784F8516094F8240050B1484609F024
:103B7000B1FE20B194F8280084F8520001E084F8E6
:103B8000526084F85050A27804F24A2104F50D796D
:103B90004FF0060A052A62D2DFE802F07A030F220C
:103BA000410084F83160C4F84452C4E9101584F827
:103BB0003C808020A4F8480053E084F8318094F8D9
:103BC0002420384612B10722027001E080F800B0CC
:103BD000228A8281C4F844524160E168B96040E0C1
:103BE0006069B860208BB88194F824003D4610B11C
:103BF00084F83CA001E084F83C6020460DF0F0FB26
:103C000050B185F814800421204602F0CFFD30BB6E
:103C1000052184F8311020E084F831B01DE0E0691E
:103C2000B860208CB88194F824003D4610B184F827
:103C30003CA001E084F83C6020460DF0D1FB48B187
:103C400085F814800421204602F0B0FD38B984F8CC
:103C500031A002E0042084F83100C4F84492A07836
:103C600078B13A4604F15400D4F8441272DF0028C7
:103C70007FF416AF94F8301094F8540073DF0028E6
:103C8000F6D1616B11B194F831008847002007E745
:103C900084F83150F5E7000002880749102A05D062
:103CA000112A05D0502A06D109F022B9808801E0F6
:103CB0004FF6FF7008807047C4A0022000B502468E
:103CC00000889DB0112838D0382814D039283BD12D
:103CD0000B4602F10A0091881A89914234D1018879
:103CE0009A8C91421ED182881DB0811D18465DF8C4
:103CF00004EB09F0C3BA08899388984224D110894B
:103D000058B14B8B984208D106208DF80000D0881E
:103D1000ADF80C000968684688471DB05DF804EBF3
:103D20000DF020B99A8E91420ED182881DB0811D6E
:103D300018465DF804EBFEF7BBBD088992889042F7
:103D400002D14FF6FF7008811DB000BD0179032933
:103D500002D280790C2801D30720704700207047D9
:103D600010B5044600F098F808B1204610BD1420A4
:103D700010BD000010B5044600F08EF8002805D0F4
:103D80002146BDE81040024805F09CBB10BD000074
:103D90007472002070B515460E4604460DF02CFBDB
:103DA000002809D0054800EB840080692A46314686
:103DB000BDE8704003F0DEB870BD00006472002002
:103DC00010B5044600F068F8002805D02146BDE88B
:103DD0001040024805F076BB10BD0000787200204C
:103DE00070B50546002400F057F838B1294604485C
:103DF00005F068FB08B1022400E00124204670BDF4
:103E00007072002070B50546002400F045F838B106
:103E10002946044805F056FB08B1022400E00124BD
:103E2000204670BD6C72002070B505460C460846F1
:103E30000DF0E2FA60B1284600F02EF840B10548D6
:103E4000294600EB8400BDE87040183005F03ABB0D
:103E5000002070BD6472002070B5054614460E4601
:103E600008460DF0C9FA002812D0284600F014F8D0
:103E700000280DD00748294600EB860018301CB1F9
:103E8000BDE8704005F029BBBDE8704005F0DABA26
:103E900070BD000064720020142801D30020704718
:103EA0000146014805F00EBB6872002070B50400A1
:103EB0002DD000292BD020480078002827D020883A
:103EC0000D46112815D0302804D0322807D03328C9
:103ED0001ED109E0211D284608F0A2FD18E0211D91
:103EE000284608F04BF913E0211D284608F0D2FBC4
:103EF0000EE0A088B5F8CA12884209D1002085F8E2
:103F0000C70285F8C8024FF6FF70A5F8CA0270BD57
:103F100095F8C8020028FAD020883028F7D34F2817
:103F2000F5D8A088B5F8CA128842F0D12846BDE875
:103F3000704001F043BF00006C5A00200E480F494A
:103F400010B5401AC008042101EB00400CA106F096
:103F500005FD4FF0FF3100203DDF00280BD1B121DE
:103F60003CDF002807D1134841690120884702201F
:103F700006F0A4FE002010BD5CCD0D009CCC0D0011
:103F8000496E20626C655F6466755F627574746FFC
:103F90006E6C6573735F626F6F746C6F6164657272
:103FA0005F73746172745F66696E616C697A650DC6
:103FB0000A000000E0750020044810B5006841695F
:103FC00000208847BDE81040FFF7B8BFD858002050
:103FD00010B500280FD00188214C502926D00BDCC9
:103FE00010291DD0112906D1A1888088814202D1D3
:103FF0004FF6FF70A08010BD512913D05329FAD17C
:10400000C088E1888842F6D1607E0028F3D0FFF7AF
:10401000D3FF0028EFD06169BDE8104002200847B7
:104020008088E7E7BDE8104008F02CBE30F8061F96
:1040300062899142DFD141890229DCD10C3000F044
:10404000B1FB0849084A2076891AC908032202EB05
:1040500001430246BDE8104004A1184606F082BCA8
:10406000E07500205CCD0D009CCC0D0052656365B1
:104070006976656420696E6469636174696F6E2036
:104080007374617465202564000000002DE9F0411F
:104090000546007B042601272E4C012811D002285A
:1040A0002CD00226287B314600F08EF818B120680B
:1040B000416903208847206841690220BDE8F0413A
:1040C000084720684FF00008817E49B10621012091
:1040D00000F07AF800283BD0206841690320EDE722
:1040E00047760121084600F06FF8002830D022689A
:1040F000112882F81980D5D10626D3E76A7B142AC5
:1041000022D80AB3DFF8508005F10E0108F104004F
:10411000FCF7E8F9697BC8F8181021684046897EE9
:104120000029BFD1A0F10C010A68011F904768B1B6
:104130000F28B7D109480A49401AC00807EB0040C8
:10414000084906F00BFCADE70526ABE7206887764B
:10415000BDE8F081D8580020087600205CCD0D0025
:104160009CCC0D0068BB0D0070B5154900250A6890
:10417000002A24D04A68002A21D008319047082814
:104180001DD0104C0028206885760ED00621022014
:1041900000F01AF818B120684169032088472068A8
:1041A00041690220BDE8704008470121022000F06B
:1041B0000BF8002803D0206841690320F2E770BDA6
:1041C000FC750020D858002086B00323ADF80030DD
:1041D00020238DF814308DF8150000220E4801922E
:1041E00002928DF81610C188ADF8041002218DF8E6
:1041F000061005A90491ADF80820CDF80CD08088F0
:1042000001A9AEDF002804D1BDF80010032900D0B9
:104210000C2006B070470000E075002010B51A4C65
:104220000188606810290ED011292BD1401E6060D2
:1042300028D1FEF705FA002824D02168002921D0D2
:10424000BDE810400847D0B900210122084600F01F
:10425000C5FC08B107280FD107220221012000F078
:10426000BDFC08B1072807D104220221002000F07C
:10427000B5FC20B1072802D0216801B188476068E9
:10428000401C606010BD0000B85700202DE9F047C9
:1042900001883B4E40F2F3194FF6FF7510291BD0F1
:1042A00011293ED0122954D0502946D1C188F28913
:1042B000841D914241D1618902293ED186883046D0
:1042C00003F0D0FF050038D004F10C0000F06EFAC6
:1042D000A8B3294630464EE0C17B878804460129B1
:1042E0002BD1A846284603F0BDFF050017D02F802C
:1042F00000202872234843464A460168C5F80A1040
:104300004068C5F80E0004F1100105F10A0004F040
:1043100048F96872F08900280FD129462AE0042064
:1043200013E0808803F09EFF040006D06068FEF76B
:10433000D9FE08B10BF05CF82580BDE8F087FFE7F7
:104340006868FEF7CFFE0028F7D0BDE8F0470BF015
:104350004FB887880646384603F084FF0400ECD047
:104360002B464A4606F1080104F10A0004F019F947
:10437000607221463846BDE8F04701F007B90000F9
:1043800048720020145800202DE9F04F0746858818
:1043900002883E48012197B08346102A09D0112A8D
:1043A0004BD01A2A6ED1387AB1EB101F47D20122B6
:1043B00046E0364C083CA068C0430B9061680BA8EF
:1043C00005F0A1F80B990CA801F0C1F82C220CA95A
:1043D0006846FCF787F80026E946A04610E000BFD3
:1043E00009EB46005FF00004B0F804A008EB84007D
:1043F0005146001D05F026F8641C1D2CF6D3761CD2
:104400000098B042ECD8142D07D317B0E321BDE8D3
:10441000F04F1FA20420FBF74DBF2946584605F078
:104420005CF8294608F1040005F057F8F87B0128EC
:1044300028D016482946001D15E029461AE000221A
:104440000221B1EB101F01D2012600E000260F4926
:10445000083901F11000041D294682B105F03DF82C
:1044600036B12946204617B0BDE8F04F05F035B803
:104470002946204617B0BDE8F04F04F0E3BF04F032
:10448000E1FFF5E717B0BDE8F08F00006C72002087
:104490002E2E5C2E2E5C2E2E5C2E2E5C2E2E5C2E56
:1044A0002E5C636F6D706F6E656E74735C626C65AD
:1044B0005C636F6D6D6F6E5C626C655F636F6E6E7B
:1044C0005F73746174652E630000000010B50446CC
:1044D0000748007800280AD0204603F0F1FC204667
:1044E0000BF090FB2046BDE8104002F05DBE10BD11
:1044F0004858002038B5044609F0BCFA3A483B4A0F
:104500002188801AC008042202EB004021294ED0E5
:104510001CDC364A344B4FF00300A3EB02024FEA97
:10452000D202334D00EB0240102922D011294DD187
:10453000227A30A106F016FA4FF6FF7420460BF0EF
:10454000D3FD6C80BDE838400BF0D6BD3B293ED092
:1045500056293BD12DA106F001FAA088132176DF60
:10456000002833D02FA240F2F921BDE83840FBF7F4
:10457000A1BE36A106F0F2F9072000F051FB20B1F0
:1045800028A24FF43471FBF795FEA1886980324868
:1045900005F0ECF820B123A240F2D321FBF78AFE0C
:1045A000A0880BF0A1FDBDE838400BF0A3BD2BA106
:1045B00006F0D4F900200090A08869468FDF00281B
:1045C00004D018A240F2E921FBF774FE38BD28A1FF
:1045D00006F0C4F9A088132176DF0028F6D011A2D6
:1045E00040F2F121C1E700005CCD0D009CCC0D0034
:1045F000885F0020446973636F6E6E6563746564E1
:1046000020726561736F6E20256400004741545429
:10461000205365727665722054696D656F75742ECE
:10462000000000002E2E5C2E2E5C2E2E5C2E2E5CAA
:104630002E2E5C736572766963655C626C655F7370
:104640006572766963652E6300000000436F6E6ECD
:10465000656374656400000040A902205048592039
:1046600075706461746520726571756573742E0070
:104670004741545420436C69656E742054696D65DC
:104680006F75742E000000000A46014610460A8825
:10469000102A05D0502A05D0512A05D108F02ABB8E
:1046A00007F054BE08F07ABC7047F0B585B01646E6
:1046B0000F4604001D4614D004AA19466069FFF78E
:1046C0003DF900280BD1A5F57F40FF380BD00498A9
:1046D00048B1007848B13088F42808D9072005B0DF
:1046E000F0BD0E20FBE70520F9E70820F7E70020E2
:1046F0000090019002900390A088ADF80000012086
:104700008DF80200CDE9026769462846AEDFE6E78C
:1047100070B588B00446002924D0002C22D0084669
:104720002188102920D0502924D057291AD1054694
:10473000A188406906AAFFF701F9002812D1069E58
:10474000307800280ED018216846FBF7F2FE0120D1
:104750008DF800000195A088ADF808000396A969BE
:104760006846884708B070BD08B02146BDE8704073
:1047700007F0B6BD08B02146BDE8704008F076BB32
:1047800013B507494B88A3F57F41FF3906D0014691
:10479000034801AA0830FFF788FF1CBD08201CBD94
:1047A000885F00200078C0F340007047007800F078
:1047B0000100704700B589B018220A4903A8FBF729
:1047C00091FE06AB0DF10C0C93E807008DE8070095
:1047D0009CE80E00012003F019F900200AF006FF02
:1047E00009B000BDE8AC0D0000B589B018220A4937
:1047F00003A8FBF777FE06AB0DF10C0C93E807005E
:104800008DE807009CE80E00022003F0FFF800206E
:104810000AF012FF09B000BD20AD0D0000B589B04F
:1048200018220A4903A8FBF75DFE06AB0DF10C0C3C
:1048300093E807008DE807009CE80E00002003F0D5
:10484000E5F80CF01BF909B000BD0000E8AB0D0065
:1048500010B50BF0BBFEFFF7E1FFFFF7ABFFFFF773
:10486000C3FF00F019F800F063F82B2005F0B0FC4E
:1048700001212B2005F002FE212005F0A9FC0121D9
:10488000212005F0FBFD2C2005F0A2FC0121BDE854
:1048900010402C2005F0F2BD00B59BB028221F4926
:1048A00011A8FBF71FFE1C2214A96846FBF71AFE8D
:1048B0000DF1440C00209CE80E0003F0AFF900203D
:1048C0000AF026FF0021164A084603F01DF9154A92
:1048D0000121002003F018F9134A0221002003F0FF
:1048E00013F90E492822283107A8FBF7FBFD1C22EB
:1048F0000AA96846FBF7F6FD0DF11C0C01209CE8A7
:104900000E0003F08BF900200AF0CAFF074A0021CD
:10491000012003F0F9F81BB000BD000048AC0D0009
:1049200009F7000001F70000F9F6000019F900008E
:10493000084808B590E80E0007480090002003F0F2
:1049400005FA0322002101200DF08CF90249091F0C
:10495000886008BDC8AC0D001C7000202DE9FF4F19
:1049600085B08046129F14468A46B88A04F00CF837
:104970000546F88A04F008F8CDE9024806466FF0CB
:1049800004049DB1A6B14FF0000B787E012813D02E
:1049900080B3022838D0284603F0F4FF304603F0F5
:1049A000F1FF6FF0050009B0BDE8F08F2046FAE78F
:1049B000284603F0E7FFF9E7BC8A5146E01E504560
:1049C00005D220204FF001092870E41E04E00C46B7
:1049D0004FF0000985F800B06C702246A81C0399BE
:1049E000FBF780FDA01C81B2284604F0FBFA2919D0
:1049F000887011E0FFE700241020287085F801B0CE
:104A00004FF00209A87007E000241F21297085F8E3
:104A100001B04FF00509A970CDE900970323324694
:104A2000E11C284600F065F85FEA000807D0284638
:104A300003F0A8FF304603F0A5FF4046B3E7B9F105
:104A4000050F13D031780120B0EB911F16D13969D1
:104A500096F80180B87F884708990424C1F800B00F
:104A60008021297085F801B0A9700DE0284603F077
:104A700089FF304603F086FF002094E70398AAEBF5
:104A8000040A2044039080E7CDE9004708F10303BE
:104A900032460321284600F02CF85FEA000920D1B5
:104AA0003078810901D1042C09D00121B1EB901F8C
:104AB000EAD1032CE8D1707804248046E4E77278C8
:104AC000B11C0298FBF70EFD029840440290089832
:104AD0000168414401603078800602D5032400203B
:104AE000EBE7284603F04EFF304603F04BFF484605
:104AF00059E72DE9FF5F0027DDE90E8599469246CB
:104B00008B463C463E4605E026B1012E19D06FF09B
:104B1000010761E0AA6859460098904710B1641CEB
:104B2000E4B216E0B8F1050F04D0687F01262969C8
:104B300088474AE02969E87F8847002004B0BDE83B
:104B4000F09FEA6849465046904720B1641CE4B2A1
:104B50000026287FEBE72969687F8847A9F10100D3
:104B600081B2504604F03EFA0AEB090111F8011C2B
:104B7000884228D19AF800000121B1EB901F09D199
:104B8000B8F1000F28D0B8F1020F25D0B8F1030F0B
:104B900022D018E081090DD06FEA901189070DD05D
:104BA0000221B1EB901F0ED1C00709D0641CE4B202
:104BB00000260AE0B8F1040F0ED004E0E87EB6E764
:104BC000B8F1010F08D0641CE4B2A87E00EB4000ED
:104BD000A04299D86FF002073846AFE770B50023BE
:104BE000032810D20D4D00EB4004012A02D1012907
:104BF0000CD00022094E00EB4000304461B1012985
:104C000006D0022906D00723184670BD0E30C2B266
:104C10002A55F9E74270F7E78270F5E7CC7000207B
:104C2000002070472DE9F8430546861C00208DF8CA
:104C3000000090460F464FF001096846FEF784FADF
:104C40001B4C20683860D4E90001401AA168081A9A
:104C500042F21C0167180EE00121384604F04DFCB9
:104C600004F06AF90146384604F047FCD4E9000133
:104C7000401AA168081A401C8642EDD8B8F1000F0E
:104C800003D0052065F3891002E0062065F39F50EC
:104C9000A2682168114004EB8101C860206830449B
:104CA00020609DF80000FEF773FA4846BDE8F883DF
:104CB000C07A002030B482680468531C8360A15419
:104CC000D0E901128A4202D330BC04F094BE30BC59
:104CD00070470000034803C8814201D1012070479A
:104CE00000207047C07A002030B5034610460022ED
:104CF000064C07E09D5C4540EDB2521C54F825502F
:104D000085EA10208A42F5D330BD0000B4AB022002
:104D10001CB5044603F0F8F900236A46092108F09F
:104D20005FFC052805D10348012241792046FFF7A1
:104D300093F81CBD1C5800201CB50021009142F6C0
:104D4000A621ADF8001001218DF80210034901AA37
:104D5000096801916946A0DF1CBD000054240100D0
:104D600005494FF0FF32082841F8202002D30844BB
:104D700080F858207047000038760020F0B54FF0DA
:104D8000FF3512B10023082601E008230C260C4C45
:104D900005E000BF54F823707F1C04D05B1CB342B5
:104DA000F8D32846F0BD26185DB286F8305044F896
:104DB0002310002AF5D1E11881F85800F1E700002E
:104DC000387600200249084490F93000704700000E
:104DD0003876002008B5024690F8C6020B4600EB74
:104DE0008001C1EB801002EB400092F8C52242B175
:104DF000521ED2B202EBC20100EB4102518A491CA1
:104E000000E0C188ADF800100089ADF802006946E5
:104E100018469DDF08BD70B504464FF6FF750A467B
:104E20002846AC4209D14FF480742146104604F064
:104E300024FB80B2A0420BD070BDFF2CFCD82146D1
:104E4000104604F00AFB90F0010F01D0204670BD1F
:104E5000284670BD70B5084C050009D01034216893
:104E6000002907D008682060496828468847F6E787
:104E70000834F4E770BD000024760020054A0121C3
:104E800020B1012805D19170FFF7E4BF51700020D7
:104E9000FAE77047247600202DE9FC47304C804625
:104EA0000026A0680090E0680190607815468A4668
:104EB000B146D0B1A078A8B92A4801268269C8F8BD
:104EC000002040692169001F88420BD362691144A8
:104ED000814207D3BAF1010F04D902264FF001092C
:104EE000C8F80400207938B90BE0FBF7CDFA074683
:104EF000FBF7C7FA874204D101AA6946284602F0A7
:104F0000ADFAA07838B10098854203D301990844DE
:104F1000A84200D20546D4E904100C18DDE90002CD
:104F20008318AB4219D92A68101FD20713D08842C0
:104F300011D384420FD3102E0DD256450BD2022E20
:104F400006D1B9F1000F03D0D8F80420824202D074
:104F500048F82600761C2D1DE3E73046BDE8FC87A7
:104F60003C5A0020149E02202DE9F04393B0804665
:104F70000C46202269490AA8FBF7B4FA684EB068CB
:104F80000790F0680890307858B1707898B1634A0B
:104F900064A1163A66A0FCF7C1FD6DA0FCF7BEFD4A
:104FA000FEE75E4A6BA1163A61A0FCF7B7FD68A068
:104FB000FCF7B4FDFEE74FF0010986F8019067A009
:104FC000FCF7ACFD62A0FCF7A9FD00F007F9534F18
:104FD000C8F380003071D83FB0B10CF0DBFA10B1EB
:104FE0000CF0D8FA00E05EA07A6A01461046FCF7A1
:104FF00095FD57A0FCF792FDFBF743FA044608AA7B
:1050000007A902F02BFA05E0B86AFCF787FD50A06B
:10501000FCF784FD48F30010401C04F12005F070FB
:1050200000D048350798854203D308990144A94226
:1050300001D286F802902A46089900F009FFB0785C
:10504000494E00283ED1F86AFCF768FD40A0FCF705
:1050500065FD2768376061687160A068B060E268CC
:10506000F2602369336163697361A369B361E369C2
:10507000F361DDE90C340091CDE90130CDE9034263
:10508000DDE90A133A4639A0FCF748FD30A0FCF7E9
:1050900045FD0DF104081098F369119AB16988E88B
:1050A0000F00706900900F9B326930A00E99FCF7D9
:1050B00035FD27A0FCF732FD37A0FCF72FFD24A01B
:1050C000FCF72CFD4448006846F8200F4248001DBC
:1050D00000783071404810300068B0603E48401D94
:1050E000007830733C481430006830613A48801DC5
:1050F0000088B082384808300068B06136480C300B
:105100000088F061344818300088306201F04CF8B3
:10511000284608F045FE13B0BDE8F083142B0100CB
:105120003C5A0020216F6E5F6661756C7400000050
:105130002825732920686173206173736572742058
:105140006661696C65642061742025732E0000001F
:105150000D0A0000696E69745F6F6B00000000004B
:105160004E4F5F4E414D4500149E02202020257376
:105170003A2025303878202025733A202530387899
:10518000202025733A2025303878202025733A20B6
:1051900025303878000000003D3D3D3D3D3D3D3D22
:1051A0003D3D3D3D3D3D3D3D3D3D3D3D3D3D3D3D2F
:1051B0003D3D3D3D3D3D3D3D3D3D3D3D3D3D3D3D1F
:1051C0003D3D3D3D3D3D3D3D3D3D3D3D3D3D3D3D0F
:1051D0003D3D3D3D3D3D000024ED00E010B507485C
:1051E000074BA3F120020068A2F12001FCF796FC16
:1051F000BDE8104003A0FCF791BC00003C2A010070
:10520000649D02200D0A00008840C0B2D040704763
:1052100010B513685C1C1460C95C80F8DD100422B2
:1052200061B1012914D010481049401AC00802EB9E
:1052300000400FA105F092FB082010BD80F8EC2083
:1052400000F13C0140F8D01F08214160012010BD51
:10525000052180F8EC1000F1BC0140F8D01F0121BD
:105260004160022010BD00005CCD0D009CCC0D0003
:10527000496E76616C696420436F6D6D616E642068
:105280004944000010B50446782004F0EFFA3820B5
:105290000CF048FB4FF4AF7004F0E8FA012126202F
:1052A00005F0E7F80A2004F0E1FA0021262005F0D5
:1052B000E0F80A2004F0DAFA0121262005F0D9F8F6
:1052C000EB200CF02FFB02200CF042FBD7200CF05F
:1052D00029FB68200CF03CFBD1200CF023FB0120C3
:1052E0000CF036FBE8200CF01DFB55200CF030FBD9
:1052F00006200CF02DFBC0200CF014FBEA200CF073
:1053000027FBB2200CF00EFB01200CF021FB022049
:105310000CF01EFBB4200CF005FBE5200CF018FB94
:1053200077200CF015FBF1200CF012FBFF200CF0A5
:105330000FFBFF200CF00CFB4F200CF009FBF120C1
:105340000CF006FBFF200CF003FBFF200CF000FB31
:105350004F200CF0FDFAB7200CF0E4FA00200CF01E
:10536000F7FAB0200CF0DEFA78200CF0F1FA1120F8
:105370000CF0D8FA4FF4FA7004F078FABD200CF073
:10538000D1FA01200CF0E4FAC7200CF0CBFA80200F
:105390000CF0DEFAE9200CF0DBFAD6200CF0C2FAB1
:1053A00001200CF0D5FACB200CF0BCFA25200CF033
:1053B000CFFA36200CF0B6FA90200CF0C9FA3A2059
:1053C0000CF0B0FA10200CF0C3FA72200CF0AAFA1C
:1053D00000200CF0BDFA04200CF0BAFA80200CF08A
:1053E000B7FAFA200CF0B4FAB5200CF09BFA0220C0
:1053F0000CF0AEFA00200CF0ABFAB9200CF092FAE7
:1054000023200CF0A5FA74B1B8200CF08BFA082018
:105410000CF09EFAD6200CF085FA03200CF098FAD6
:1054200039200CF07FFA2A200CF07CFA00200CF0D6
:105430008FFA3B200CF08CFA2B200CF073FA002032
:105440000CF086FAEF200CF083FA35200CF06AFAA3
:1054500000200CF07DFAD0200CF064FA1F200CF034
:1054600077FA74B938200CF05DFAB8200CF05AFACB
:1054700008200CF06DFAD6200CF054FA01200CF044
:1054800067FA29200CF04EFAD8200CF04BFA0120D4
:105490000CF05EFAC4200CF045FAF1200CF058FA3A
:1054A000D8200CF03FFA03200CF052FAE3200CF065
:1054B00039FABDE8104002200CF04ABA2DE9F0415B
:1054C00086B000240F46804601256E46385DFF28D1
:1054D00023D0C10920F0800046F82400049004A8DD
:1054E00007D004F05DFF049905FA01F1C0F8081532
:1054F00006E004F055FF049905FA01F1C0F80C1517
:1055000056F82400049004A804F04AFF049A0321EA
:1055100000EB8200C0F8001703E04FF0FF3046F8C0
:105520002400641CE4B2042CD0D3D8F800106B46DD
:10553000002000BF01EB800253F82040C2F8604514
:10554000401CC0B20428F5D306B0BDE8F08173B5A5
:105550008CB00646002000900D9880B100246D4666
:1055600021460DA803F0AEFF30B1009805EB4000D6
:1055700084800098401C0090641C142CF0D32C22D2
:1055800069463046FAF7AEFF0EB070BD38B54A7ABC
:105590000F4B62B100220A725969002906D001221C
:1055A0008DF80020ADF802006846884738BD0A7AB9
:1055B00062B19B684C68024619462046FDF73CFDE7
:1055C0000028F3D0BDE8384009F012BF5B68F1E76E
:1055D00048720020F0B587B016460F4604461D46B7
:1055E00018220B496846FAF77DFF0A488DF80870C3
:1055F000ADF80240ADF80A608DF80C500178002239
:105600002046FEF729FC684600F0BAFD07B0F0BD61
:1056100094250100B858002070B5124E05460C467E
:10562000307858B9104A00211048FDF7D9FC18B15C
:105630000F4AE021FAF73EFE012030700B480022AD
:1056400065F30F0264F3174240F29A310068FDF7E8
:10565000F3FC002805D0BDE87040054AEB21FAF7BD
:1056600029BE70BD58580020DB5B00002C250100CE
:10567000A8B60D0010B5044600F018F804480068FC
:10568000C16820468847BDE8104000F053B80000CC
:105690008470002010B5044C206800688047012009
:1056A0000CF0CEFA606010BD8470002004484068A1
:1056B000002803D04FF47A710CF004BC704700004E
:1056C0008470002010B50446FFF7F0FF044800681E
:1056D000C16920468847BDE8104000F02BB80000A3
:1056E0008470002070B514460D460646FFF7DEFFB5
:1056F0000548224629460068436930469847BDE878
:10570000704000F017B800008470002070B5144697
:105710000D460646FFF7CAFF05482246294600689F
:10572000436930469847BDE8704000F003B8000078
:105730008470002004484068002804D000231A46E2
:1057400019460CF0E7BA70478470002070B5144613
:105750000D460646FFF7AAFF05482246294600687F
:10576000036930469847BDE87040FFF7E3BF00008B
:105770008470002070B514460D460646FFF796FF6C
:105780000548224629460068436A30469847044641
:10579000FFF7D0FF204670BD847000203EB5204C3E
:1057A00000258DF80850206902AA01A9036A6846FD
:1057B00098479DF8082072B1012A0BD1E088F028A3
:1057C00006D02089F02803D0A188608800F0CEF8A8
:1057D000E58025813EBDE188F0290CD02089F028A4
:1057E00009D041B138B1BDF800006081BDF80410A6
:1057F000A18100F05FF8E0882189084307D19DF876
:105800000820BDF80410BDF8000000F00BF8BDF84A
:105810000000E080BDF8041021816080A1803EBDC1
:105820005C7000202DE9F04106460C4801270D462A
:105830004680818007700A48A0F1200406804180DC
:10584000606A10B90CF036FC6062002229463046CE
:105850000AF0C8FFE761BDE8F0810000DCC8022063
:105860007C70002010B500F041F804480069006821
:105870008047BDE810400AF0ABBF00005C7000201C
:1058800010B50B4CE069002811D00CF013FC616AD4
:1058900088420CD9401AB0F57A7F08D904F120006B
:1058A000012241880088BDE8104000F05FB810BDBB
:1058B0005C700020034A0123508091801370022203
:1058C0000AF090BFDCC80220074C0020FFF766FFFB
:1058D000207820B1401E10F0FF002070F5D16069E3
:1058E0000BF0AEFEF1E700005C7000201CB50B4928
:1058F000032009F003F80A490420CDE900018201E0
:10590000002308A108480CF09BFB054C143C60697F
:105910000BF096FE002020701CBD00008158000096
:105920007070002074700000C958000010B5EFF3CB
:105930001184402080F311880A480178491C0170C5
:1059400040690CF0FFFC012807D1074900070860F7
:1059500040BFBFF34F8FBFF36F8FE0B280F311886A
:1059600010BD00005C70002004ED00E02DE9F04166
:105970000E4607460CF09EFB144C0546E0690028D5
:1059800021D004F120010A2208884988381A711AA6
:1059900000B209B203F0BFFC60700D4801214780DE
:1059A00086800170606A854205D9281AB0F57A7F31
:1059B00001D9032200E00122002531463846656204
:1059C0000AF010FFE561BDE8F08100005C70002086
:1059D000DCC80220F0B50C4606461E481E4987B0BA
:1059E000401AC708042000EB0740334622461BA19B
:1059F00004F0BFFF002004900590ADF81040019026
:105A00000290ADF8124001AA04A9304690DF0500CB
:105A10001DD005F0F9FA0346012000EB07400446CB
:105A200032461A4904F0A5FFBDF8042012B9BDF8AA
:105A3000060028B1BDF80630204615A104F099FFF4
:105A4000BDF808201AB12046214904F08BFF07B0A9
:105A50002846F0BDB4CC0D009CCC0D00557064619F
:105A600074696E672064617461206C656E67746828
:105A700020746F202575206F6E20636F6E6E6563D6
:105A800074696F6E20307825782E0000D0B10D003B
:105A90005468652072657175657374656420545827
:105AA0002F5258207061636B6574206C656E67744B
:105AB0006820697320746F6F206C6F6E6720627945
:105AC0002025752F2575206F63746574732E000073
:105AD0001CB20D0070B504460948012103F028FDF1
